{
  "contractName": "MetadataManager",
  "abi": [
    {
      "inputs": [],
      "stateMutability": "nonpayable",
      "type": "constructor"
    },
    {
      "anonymous": false,
      "inputs": [
        {
          "indexed": true,
          "internalType": "uint256",
          "name": "tokenId",
          "type": "uint256"
        },
        {
          "indexed": false,
          "internalType": "string",
          "name": "bio",
          "type": "string"
        }
      ],
      "name": "BioChange",
      "type": "event"
    },
    {
      "anonymous": false,
      "inputs": [
        {
          "indexed": true,
          "internalType": "uint256",
          "name": "tokenId",
          "type": "uint256"
        },
        {
          "indexed": false,
          "internalType": "string",
          "name": "newName",
          "type": "string"
        }
      ],
      "name": "NameChange",
      "type": "event"
    },
    {
      "anonymous": false,
      "inputs": [
        {
          "indexed": true,
          "internalType": "address",
          "name": "previousOwner",
          "type": "address"
        },
        {
          "indexed": true,
          "internalType": "address",
          "name": "newOwner",
          "type": "address"
        }
      ],
      "name": "OwnershipTransferred",
      "type": "event"
    },
    {
      "inputs": [],
      "name": "BIO_CHANGE_PRICE",
      "outputs": [
        {
          "internalType": "uint256",
          "name": "",
          "type": "uint256"
        }
      ],
      "stateMutability": "view",
      "type": "function",
      "constant": true
    },
    {
      "inputs": [],
      "name": "NAME_CHANGE_PRICE",
      "outputs": [
        {
          "internalType": "uint256",
          "name": "",
          "type": "uint256"
        }
      ],
      "stateMutability": "view",
      "type": "function",
      "constant": true
    },
    {
      "inputs": [],
      "name": "baseTokenURI",
      "outputs": [
        {
          "internalType": "string",
          "name": "",
          "type": "string"
        }
      ],
      "stateMutability": "view",
      "type": "function",
      "constant": true
    },
    {
      "inputs": [
        {
          "internalType": "uint256",
          "name": "",
          "type": "uint256"
        }
      ],
      "name": "bio",
      "outputs": [
        {
          "internalType": "string",
          "name": "",
          "type": "string"
        }
      ],
      "stateMutability": "view",
      "type": "function",
      "constant": true
    },
    {
      "inputs": [],
      "name": "owner",
      "outputs": [
        {
          "internalType": "address",
          "name": "",
          "type": "address"
        }
      ],
      "stateMutability": "view",
      "type": "function",
      "constant": true
    },
    {
      "inputs": [],
      "name": "renounceOwnership",
      "outputs": [],
      "stateMutability": "nonpayable",
      "type": "function"
    },
    {
      "inputs": [
        {
          "internalType": "address",
          "name": "newOwner",
          "type": "address"
        }
      ],
      "name": "transferOwnership",
      "outputs": [],
      "stateMutability": "nonpayable",
      "type": "function"
    },
    {
      "inputs": [
        {
          "internalType": "uint256",
          "name": "_tokenId",
          "type": "uint256"
        }
      ],
      "name": "tokenURI",
      "outputs": [
        {
          "internalType": "string",
          "name": "",
          "type": "string"
        }
      ],
      "stateMutability": "view",
      "type": "function",
      "constant": true
    },
    {
      "inputs": [
        {
          "internalType": "string",
          "name": "_baseURI",
          "type": "string"
        }
      ],
      "name": "setBaseURI",
      "outputs": [],
      "stateMutability": "nonpayable",
      "type": "function"
    }
  ],
  "bytecode": "0x608060405268056bc75e2d63100000600255681043561a88293000006003553480156200002b57600080fd5b506200004c620000406200007c60201b60201c565b6200008460201b60201c565b620000766040518060600160405280603681526020016200139e603691396200014860201b60201c565b620003a6565b600033905090565b60008060009054906101000a900473ffffffffffffffffffffffffffffffffffffffff169050816000806101000a81548173ffffffffffffffffffffffffffffffffffffffff021916908373ffffffffffffffffffffffffffffffffffffffff1602179055508173ffffffffffffffffffffffffffffffffffffffff168173ffffffffffffffffffffffffffffffffffffffff167f8be0079c531659141344cd1fd0a4f28419497f9722a3daafe3b4186f6b6457e060405160405180910390a35050565b620001586200007c60201b60201c565b73ffffffffffffffffffffffffffffffffffffffff166200017e620001f360201b60201c565b73ffffffffffffffffffffffffffffffffffffffff1614620001d7576040517f08c379a0000000000000000000000000000000000000000000000000000000008152600401620001ce906200030e565b60405180910390fd5b8060019080519060200190620001ef9291906200021c565b5050565b60008060009054906101000a900473ffffffffffffffffffffffffffffffffffffffff16905090565b8280546200022a9062000341565b90600052602060002090601f0160209004810192826200024e57600085556200029a565b82601f106200026957805160ff19168380011785556200029a565b828001600101855582156200029a579182015b82811115620002995782518255916020019190600101906200027c565b5b509050620002a99190620002ad565b5090565b5b80821115620002c8576000816000905550600101620002ae565b5090565b6000620002db60208362000330565b91507f4f776e61626c653a2063616c6c6572206973206e6f7420746865206f776e65726000830152602082019050919050565b600060208201905081810360008301526200032981620002cc565b9050919050565b600082825260208201905092915050565b600060028204905060018216806200035a57607f821691505b6020821081141562000371576200037062000377565b5b50919050565b7f4e487b7100000000000000000000000000000000000000000000000000000000600052602260045260246000fd5b610fe880620003b66000396000f3fe608060405234801561001057600080fd5b50600436106100935760003560e01c806374151be01161006657806374151be01461010c5780638da5cb5b1461012a578063c87b56dd14610148578063d547cfb714610178578063f2fde38b1461019657610093565b806336033deb1461009857806354b6f161146100c857806355f804b3146100e6578063715018a614610102575b600080fd5b6100b260048036038101906100ad91906109a3565b6101b2565b6040516100bf9190610bb8565b60405180910390f35b6100d0610252565b6040516100dd9190610c1a565b60405180910390f35b61010060048036038101906100fb9190610962565b610258565b005b61010a6102ee565b005b610114610376565b6040516101219190610c1a565b60405180910390f35b61013261037c565b60405161013f9190610b9d565b60405180910390f35b610162600480360381019061015d91906109a3565b6103a5565b60405161016f9190610bb8565b60405180910390f35b610180610405565b60405161018d9190610bb8565b60405180910390f35b6101b060048036038101906101ab9190610939565b610493565b005b600460205280600052604060002060009150905080546101d190610e0b565b80601f01602080910402602001604051908101604052809291908181526020018280546101fd90610e0b565b801561024a5780601f1061021f5761010080835404028352916020019161024a565b820191906000526020600020905b81548152906001019060200180831161022d57829003601f168201915b505050505081565b60025481565b61026061058b565b73ffffffffffffffffffffffffffffffffffffffff1661027e61037c565b73ffffffffffffffffffffffffffffffffffffffff16146102d4576040517f08c379a00000000000000000000000000000000000000000000000000000000081526004016102cb90610bfa565b60405180910390fd5b80600190805190602001906102ea929190610804565b5050565b6102f661058b565b73ffffffffffffffffffffffffffffffffffffffff1661031461037c565b73ffffffffffffffffffffffffffffffffffffffff161461036a576040517f08c379a000000000000000000000000000000000000000000000000000000000815260040161036190610bfa565b60405180910390fd5b6103746000610593565b565b60035481565b60008060009054906101000a900473ffffffffffffffffffffffffffffffffffffffff16905090565b60606000600180546103b690610e0b565b9050116103d257604051806020016040528060008152506103fe565b60016103dd83610657565b6040516020016103ee929190610b79565b6040516020818303038152906040525b9050919050565b6001805461041290610e0b565b80601f016020809104026020016040519081016040528092919081815260200182805461043e90610e0b565b801561048b5780601f106104605761010080835404028352916020019161048b565b820191906000526020600020905b81548152906001019060200180831161046e57829003601f168201915b505050505081565b61049b61058b565b73ffffffffffffffffffffffffffffffffffffffff166104b961037c565b73ffffffffffffffffffffffffffffffffffffffff161461050f576040517f08c379a000000000000000000000000000000000000000000000000000000000815260040161050690610bfa565b60405180910390fd5b600073ffffffffffffffffffffffffffffffffffffffff168173ffffffffffffffffffffffffffffffffffffffff16141561057f576040517f08c379a000000000000000000000000000000000000000000000000000000000815260040161057690610bda565b60405180910390fd5b61058881610593565b50565b600033905090565b60008060009054906101000a900473ffffffffffffffffffffffffffffffffffffffff169050816000806101000a81548173ffffffffffffffffffffffffffffffffffffffff021916908373ffffffffffffffffffffffffffffffffffffffff1602179055508173ffffffffffffffffffffffffffffffffffffffff168173ffffffffffffffffffffffffffffffffffffffff167f8be0079c531659141344cd1fd0a4f28419497f9722a3daafe3b4186f6b6457e060405160405180910390a35050565b6060600082141561069f576040518060400160405280600181526020017f300000000000000000000000000000000000000000000000000000000000000081525090506107ff565b600082905060005b600082146106d15780806106ba90610e3d565b915050600a826106ca9190610d28565b91506106a7565b60008167ffffffffffffffff811115610713577f4e487b7100000000000000000000000000000000000000000000000000000000600052604160045260246000fd5b6040519080825280601f01601f1916602001820160405280156107455781602001600182028036833780820191505090505b5090505b600085146107f85760018261075e9190610d59565b9150600a8561076d9190610e86565b60306107799190610cd2565b60f81b8183815181106107b5577f4e487b7100000000000000000000000000000000000000000000000000000000600052603260045260246000fd5b60200101907effffffffffffffffffffffffffffffffffffffffffffffffffffffffffffff1916908160001a905350600a856107f19190610d28565b9450610749565b8093505050505b919050565b82805461081090610e0b565b90600052602060002090601f0160209004810192826108325760008555610879565b82601f1061084b57805160ff1916838001178555610879565b82800160010185558215610879579182015b8281111561087857825182559160200191906001019061085d565b5b509050610886919061088a565b5090565b5b808211156108a357600081600090555060010161088b565b5090565b60006108ba6108b584610c66565b610c35565b9050828152602081018484840111156108d257600080fd5b6108dd848285610dc9565b509392505050565b6000813590506108f481610f84565b92915050565b600082601f83011261090b57600080fd5b813561091b8482602086016108a7565b91505092915050565b60008135905061093381610f9b565b92915050565b60006020828403121561094b57600080fd5b6000610959848285016108e5565b91505092915050565b60006020828403121561097457600080fd5b600082013567ffffffffffffffff81111561098e57600080fd5b61099a848285016108fa565b91505092915050565b6000602082840312156109b557600080fd5b60006109c384828501610924565b91505092915050565b6109d581610d8d565b82525050565b60006109e682610cab565b6109f08185610cb6565b9350610a00818560208601610dd8565b610a0981610f73565b840191505092915050565b6000610a1f82610cab565b610a298185610cc7565b9350610a39818560208601610dd8565b80840191505092915050565b60008154610a5281610e0b565b610a5c8186610cc7565b94506001821660008114610a775760018114610a8857610abb565b60ff19831686528186019350610abb565b610a9185610c96565b60005b83811015610ab357815481890152600182019150602081019050610a94565b838801955050505b50505092915050565b6000610ad1602683610cb6565b91507f4f776e61626c653a206e6577206f776e657220697320746865207a65726f206160008301527f64647265737300000000000000000000000000000000000000000000000000006020830152604082019050919050565b6000610b37602083610cb6565b91507f4f776e61626c653a2063616c6c6572206973206e6f7420746865206f776e65726000830152602082019050919050565b610b7381610dbf565b82525050565b6000610b858285610a45565b9150610b918284610a14565b91508190509392505050565b6000602082019050610bb260008301846109cc565b92915050565b60006020820190508181036000830152610bd281846109db565b905092915050565b60006020820190508181036000830152610bf381610ac4565b9050919050565b60006020820190508181036000830152610c1381610b2a565b9050919050565b6000602082019050610c2f6000830184610b6a565b92915050565b6000604051905081810181811067ffffffffffffffff82111715610c5c57610c5b610f44565b5b8060405250919050565b600067ffffffffffffffff821115610c8157610c80610f44565b5b601f19601f8301169050602081019050919050565b60008190508160005260206000209050919050565b600081519050919050565b600082825260208201905092915050565b600081905092915050565b6000610cdd82610dbf565b9150610ce883610dbf565b9250827fffffffffffffffffffffffffffffffffffffffffffffffffffffffffffffffff03821115610d1d57610d1c610eb7565b5b828201905092915050565b6000610d3382610dbf565b9150610d3e83610dbf565b925082610d4e57610d4d610ee6565b5b828204905092915050565b6000610d6482610dbf565b9150610d6f83610dbf565b925082821015610d8257610d81610eb7565b5b828203905092915050565b6000610d9882610d9f565b9050919050565b600073ffffffffffffffffffffffffffffffffffffffff82169050919050565b6000819050919050565b82818337600083830152505050565b60005b83811015610df6578082015181840152602081019050610ddb565b83811115610e05576000848401525b50505050565b60006002820490506001821680610e2357607f821691505b60208210811415610e3757610e36610f15565b5b50919050565b6000610e4882610dbf565b91507fffffffffffffffffffffffffffffffffffffffffffffffffffffffffffffffff821415610e7b57610e7a610eb7565b5b600182019050919050565b6000610e9182610dbf565b9150610e9c83610dbf565b925082610eac57610eab610ee6565b5b828206905092915050565b7f4e487b7100000000000000000000000000000000000000000000000000000000600052601160045260246000fd5b7f4e487b7100000000000000000000000000000000000000000000000000000000600052601260045260246000fd5b7f4e487b7100000000000000000000000000000000000000000000000000000000600052602260045260246000fd5b7f4e487b7100000000000000000000000000000000000000000000000000000000600052604160045260246000fd5b6000601f19601f8301169050919050565b610f8d81610d8d565b8114610f9857600080fd5b50565b610fa481610dbf565b8114610faf57600080fd5b5056fea2646970667358221220539929d989ff95270157ab007f6ccbf495e8f27bf654be2df013fe39fc8e25ea64736f6c63430008000033697066733a2f2f516d626771796f5a3866626a33734d535133635962574a50367557566562766950723657595245585555447151572f",
  "immutableReferences": {},
  "source": "pragma solidity ^0.8.0;\n\nimport \"@openzeppelin/contracts/access/Ownable.sol\";\nimport \"@openzeppelin/contracts/utils/Strings.sol\";\nimport \"./interfaces/IMetadataManager.sol\";\n\ncontract MetadataManager is Ownable, IMetadataManager {\n\tusing Strings for uint256;\n\tstring public baseTokenURI;\n\n\tuint256 public NAME_CHANGE_PRICE = 100 ether;\n\tuint256 public BIO_CHANGE_PRICE = 300 ether;\n\n\t// Placeholder stats, this implementation can be changed later.\n\t// All mappings have to be copied into the new implementation.\n\t// @TODO make sure reserved names can be ported later on by chaning the data structures a bit.\n\tstruct Stats {\n\t\tuint256 level;\n\t\tuint256 armour;\n\t}\n\n\tmapping(uint256 => string) public bio;\n\n\t// Mapping from token ID to name\n\tmapping(uint256 => string) private _tokenName;\n\n\tmapping(uint256 => Stats) private _tokenStats;\n\n\t// Mapping if certain name string has already been reserved\n\tmapping(string => bool) private _nameReserved;\n\n\tevent NameChange(uint256 indexed tokenId, string newName);\n\tevent BioChange(uint256 indexed tokenId, string bio);\n\n\tconstructor() public {\n\t\tsetBaseURI(\"ipfs://QmbgqyoZ8fbj3sMSQ3cYbWJP6uWVebviPr6WYREXUUDqQW/\");\n\t}\n\n\tfunction tokenURI(uint256 _tokenId) external view override returns (string memory) {\n\t\t// return string(abi.encodePacked(\"ipfs://QmeigNyGfEHzHYSKBh2Uq7q5d3MXd4djeDjzFhfHpoorkU\"));\n\t\treturn bytes(baseTokenURI).length > 0 ? string(abi.encodePacked(baseTokenURI, _tokenId.toString())) : \"\";\n\t}\n\n\tfunction setBaseURI(string memory _baseURI) public onlyOwner {\n\t\tbaseTokenURI = _baseURI;\n\t}\n}",
  "sourcePath": "/Users/reneVolution/Documents/Development/PiratesNFT/pirates-contracts/src/contracts/MetadataManager.sol",
  "compiler": {
    "name": "solc",
    "version": "0.8.0+commit.c7dfd78e.Emscripten.clang"
  },
  "schemaVersion": "3.4.3",
  "updatedAt": "2021-10-30T15:20:27.836Z",
  "networkType": "ethereum",
  "devdoc": {
    "kind": "dev",
    "methods": {
      "owner()": {
        "details": "Returns the address of the current owner."
      },
      "renounceOwnership()": {
        "details": "Leaves the contract without owner. It will not be possible to call `onlyOwner` functions anymore. Can only be called by the current owner. NOTE: Renouncing ownership will leave the contract without an owner, thereby removing any functionality that is only available to the owner."
      },
      "transferOwnership(address)": {
        "details": "Transfers ownership of the contract to a new account (`newOwner`). Can only be called by the current owner."
      }
    },
    "version": 1
  },
  "userdoc": {
    "kind": "user",
    "methods": {},
    "version": 1
  }
}