{
  "contractName": "RisingSkullsNFT",
  "abi": [
    {
      "inputs": [
        {
          "internalType": "string",
          "name": "_name",
          "type": "string"
        },
        {
          "internalType": "string",
          "name": "_symbol",
          "type": "string"
        }
      ],
      "stateMutability": "nonpayable",
      "type": "constructor"
    },
    {
      "anonymous": false,
      "inputs": [
        {
          "indexed": true,
          "internalType": "address",
          "name": "owner",
          "type": "address"
        },
        {
          "indexed": true,
          "internalType": "address",
          "name": "approved",
          "type": "address"
        },
        {
          "indexed": true,
          "internalType": "uint256",
          "name": "tokenId",
          "type": "uint256"
        }
      ],
      "name": "Approval",
      "type": "event"
    },
    {
      "anonymous": false,
      "inputs": [
        {
          "indexed": true,
          "internalType": "address",
          "name": "owner",
          "type": "address"
        },
        {
          "indexed": true,
          "internalType": "address",
          "name": "operator",
          "type": "address"
        },
        {
          "indexed": false,
          "internalType": "bool",
          "name": "approved",
          "type": "bool"
        }
      ],
      "name": "ApprovalForAll",
      "type": "event"
    },
    {
      "anonymous": false,
      "inputs": [
        {
          "indexed": true,
          "internalType": "address",
          "name": "previousOwner",
          "type": "address"
        },
        {
          "indexed": true,
          "internalType": "address",
          "name": "newOwner",
          "type": "address"
        }
      ],
      "name": "OwnershipTransferred",
      "type": "event"
    },
    {
      "anonymous": false,
      "inputs": [
        {
          "indexed": true,
          "internalType": "bytes32",
          "name": "role",
          "type": "bytes32"
        },
        {
          "indexed": true,
          "internalType": "bytes32",
          "name": "previousAdminRole",
          "type": "bytes32"
        },
        {
          "indexed": true,
          "internalType": "bytes32",
          "name": "newAdminRole",
          "type": "bytes32"
        }
      ],
      "name": "RoleAdminChanged",
      "type": "event"
    },
    {
      "anonymous": false,
      "inputs": [
        {
          "indexed": true,
          "internalType": "bytes32",
          "name": "role",
          "type": "bytes32"
        },
        {
          "indexed": true,
          "internalType": "address",
          "name": "account",
          "type": "address"
        },
        {
          "indexed": true,
          "internalType": "address",
          "name": "sender",
          "type": "address"
        }
      ],
      "name": "RoleGranted",
      "type": "event"
    },
    {
      "anonymous": false,
      "inputs": [
        {
          "indexed": true,
          "internalType": "bytes32",
          "name": "role",
          "type": "bytes32"
        },
        {
          "indexed": true,
          "internalType": "address",
          "name": "account",
          "type": "address"
        },
        {
          "indexed": true,
          "internalType": "address",
          "name": "sender",
          "type": "address"
        }
      ],
      "name": "RoleRevoked",
      "type": "event"
    },
    {
      "anonymous": false,
      "inputs": [
        {
          "indexed": false,
          "internalType": "uint256",
          "name": "tokenId",
          "type": "uint256"
        },
        {
          "indexed": false,
          "internalType": "uint256",
          "name": "genes",
          "type": "uint256"
        }
      ],
      "name": "SkullBorn",
      "type": "event"
    },
    {
      "anonymous": false,
      "inputs": [
        {
          "indexed": false,
          "internalType": "uint256",
          "name": "tokenId",
          "type": "uint256"
        },
        {
          "indexed": false,
          "internalType": "uint256",
          "name": "matron",
          "type": "uint256"
        },
        {
          "indexed": false,
          "internalType": "uint256",
          "name": "sire",
          "type": "uint256"
        }
      ],
      "name": "SkullIncubated",
      "type": "event"
    },
    {
      "anonymous": false,
      "inputs": [
        {
          "indexed": true,
          "internalType": "address",
          "name": "from",
          "type": "address"
        },
        {
          "indexed": true,
          "internalType": "address",
          "name": "to",
          "type": "address"
        },
        {
          "indexed": true,
          "internalType": "uint256",
          "name": "tokenId",
          "type": "uint256"
        }
      ],
      "name": "Transfer",
      "type": "event"
    },
    {
      "inputs": [],
      "name": "DEFAULT_ADMIN_ROLE",
      "outputs": [
        {
          "internalType": "bytes32",
          "name": "",
          "type": "bytes32"
        }
      ],
      "stateMutability": "view",
      "type": "function",
      "constant": true
    },
    {
      "inputs": [],
      "name": "MINTER_ROLE",
      "outputs": [
        {
          "internalType": "bytes32",
          "name": "",
          "type": "bytes32"
        }
      ],
      "stateMutability": "view",
      "type": "function",
      "constant": true
    },
    {
      "inputs": [
        {
          "internalType": "address",
          "name": "to",
          "type": "address"
        },
        {
          "internalType": "uint256",
          "name": "tokenId",
          "type": "uint256"
        }
      ],
      "name": "approve",
      "outputs": [],
      "stateMutability": "nonpayable",
      "type": "function"
    },
    {
      "inputs": [
        {
          "internalType": "address",
          "name": "",
          "type": "address"
        }
      ],
      "name": "balanceOG",
      "outputs": [
        {
          "internalType": "uint256",
          "name": "",
          "type": "uint256"
        }
      ],
      "stateMutability": "view",
      "type": "function",
      "constant": true
    },
    {
      "inputs": [
        {
          "internalType": "address",
          "name": "owner",
          "type": "address"
        }
      ],
      "name": "balanceOf",
      "outputs": [
        {
          "internalType": "uint256",
          "name": "",
          "type": "uint256"
        }
      ],
      "stateMutability": "view",
      "type": "function",
      "constant": true
    },
    {
      "inputs": [
        {
          "internalType": "uint256",
          "name": "tokenId",
          "type": "uint256"
        }
      ],
      "name": "getApproved",
      "outputs": [
        {
          "internalType": "address",
          "name": "",
          "type": "address"
        }
      ],
      "stateMutability": "view",
      "type": "function",
      "constant": true
    },
    {
      "inputs": [
        {
          "internalType": "bytes32",
          "name": "role",
          "type": "bytes32"
        }
      ],
      "name": "getRoleAdmin",
      "outputs": [
        {
          "internalType": "bytes32",
          "name": "",
          "type": "bytes32"
        }
      ],
      "stateMutability": "view",
      "type": "function",
      "constant": true
    },
    {
      "inputs": [
        {
          "internalType": "bytes32",
          "name": "role",
          "type": "bytes32"
        },
        {
          "internalType": "address",
          "name": "account",
          "type": "address"
        }
      ],
      "name": "grantRole",
      "outputs": [],
      "stateMutability": "nonpayable",
      "type": "function"
    },
    {
      "inputs": [
        {
          "internalType": "bytes32",
          "name": "role",
          "type": "bytes32"
        },
        {
          "internalType": "address",
          "name": "account",
          "type": "address"
        }
      ],
      "name": "hasRole",
      "outputs": [
        {
          "internalType": "bool",
          "name": "",
          "type": "bool"
        }
      ],
      "stateMutability": "view",
      "type": "function",
      "constant": true
    },
    {
      "inputs": [
        {
          "internalType": "address",
          "name": "owner",
          "type": "address"
        },
        {
          "internalType": "address",
          "name": "operator",
          "type": "address"
        }
      ],
      "name": "isApprovedForAll",
      "outputs": [
        {
          "internalType": "bool",
          "name": "",
          "type": "bool"
        }
      ],
      "stateMutability": "view",
      "type": "function",
      "constant": true
    },
    {
      "inputs": [],
      "name": "metadataManager",
      "outputs": [
        {
          "internalType": "contract IMetadataManager",
          "name": "",
          "type": "address"
        }
      ],
      "stateMutability": "view",
      "type": "function",
      "constant": true
    },
    {
      "inputs": [],
      "name": "name",
      "outputs": [
        {
          "internalType": "string",
          "name": "",
          "type": "string"
        }
      ],
      "stateMutability": "view",
      "type": "function",
      "constant": true
    },
    {
      "inputs": [],
      "name": "owner",
      "outputs": [
        {
          "internalType": "address",
          "name": "",
          "type": "address"
        }
      ],
      "stateMutability": "view",
      "type": "function",
      "constant": true
    },
    {
      "inputs": [
        {
          "internalType": "uint256",
          "name": "tokenId",
          "type": "uint256"
        }
      ],
      "name": "ownerOf",
      "outputs": [
        {
          "internalType": "address",
          "name": "",
          "type": "address"
        }
      ],
      "stateMutability": "view",
      "type": "function",
      "constant": true
    },
    {
      "inputs": [],
      "name": "renounceOwnership",
      "outputs": [],
      "stateMutability": "nonpayable",
      "type": "function"
    },
    {
      "inputs": [
        {
          "internalType": "bytes32",
          "name": "role",
          "type": "bytes32"
        },
        {
          "internalType": "address",
          "name": "account",
          "type": "address"
        }
      ],
      "name": "renounceRole",
      "outputs": [],
      "stateMutability": "nonpayable",
      "type": "function"
    },
    {
      "inputs": [
        {
          "internalType": "bytes32",
          "name": "role",
          "type": "bytes32"
        },
        {
          "internalType": "address",
          "name": "account",
          "type": "address"
        }
      ],
      "name": "revokeRole",
      "outputs": [],
      "stateMutability": "nonpayable",
      "type": "function"
    },
    {
      "inputs": [],
      "name": "rewardsActive",
      "outputs": [
        {
          "internalType": "bool",
          "name": "",
          "type": "bool"
        }
      ],
      "stateMutability": "view",
      "type": "function",
      "constant": true
    },
    {
      "inputs": [
        {
          "internalType": "address",
          "name": "operator",
          "type": "address"
        },
        {
          "internalType": "bool",
          "name": "approved",
          "type": "bool"
        }
      ],
      "name": "setApprovalForAll",
      "outputs": [],
      "stateMutability": "nonpayable",
      "type": "function"
    },
    {
      "inputs": [
        {
          "internalType": "uint256",
          "name": "",
          "type": "uint256"
        }
      ],
      "name": "skulls",
      "outputs": [
        {
          "internalType": "uint256",
          "name": "genes",
          "type": "uint256"
        },
        {
          "internalType": "uint256",
          "name": "bornAt",
          "type": "uint256"
        },
        {
          "internalType": "uint256",
          "name": "rarity",
          "type": "uint256"
        }
      ],
      "stateMutability": "view",
      "type": "function",
      "constant": true
    },
    {
      "inputs": [],
      "name": "symbol",
      "outputs": [
        {
          "internalType": "string",
          "name": "",
          "type": "string"
        }
      ],
      "stateMutability": "view",
      "type": "function",
      "constant": true
    },
    {
      "inputs": [
        {
          "internalType": "uint256",
          "name": "index",
          "type": "uint256"
        }
      ],
      "name": "tokenByIndex",
      "outputs": [
        {
          "internalType": "uint256",
          "name": "",
          "type": "uint256"
        }
      ],
      "stateMutability": "view",
      "type": "function",
      "constant": true
    },
    {
      "inputs": [
        {
          "internalType": "address",
          "name": "owner",
          "type": "address"
        },
        {
          "internalType": "uint256",
          "name": "index",
          "type": "uint256"
        }
      ],
      "name": "tokenOfOwnerByIndex",
      "outputs": [
        {
          "internalType": "uint256",
          "name": "",
          "type": "uint256"
        }
      ],
      "stateMutability": "view",
      "type": "function",
      "constant": true
    },
    {
      "inputs": [],
      "name": "totalSupply",
      "outputs": [
        {
          "internalType": "uint256",
          "name": "",
          "type": "uint256"
        }
      ],
      "stateMutability": "view",
      "type": "function",
      "constant": true
    },
    {
      "inputs": [
        {
          "internalType": "address",
          "name": "newOwner",
          "type": "address"
        }
      ],
      "name": "transferOwnership",
      "outputs": [],
      "stateMutability": "nonpayable",
      "type": "function"
    },
    {
      "inputs": [],
      "name": "yieldToken",
      "outputs": [
        {
          "internalType": "contract IYieldToken",
          "name": "",
          "type": "address"
        }
      ],
      "stateMutability": "view",
      "type": "function",
      "constant": true
    },
    {
      "inputs": [
        {
          "internalType": "address",
          "name": "to",
          "type": "address"
        },
        {
          "internalType": "uint256",
          "name": "genes",
          "type": "uint256"
        },
        {
          "internalType": "uint256",
          "name": "rarity",
          "type": "uint256"
        }
      ],
      "name": "mint",
      "outputs": [
        {
          "internalType": "uint256",
          "name": "",
          "type": "uint256"
        }
      ],
      "stateMutability": "nonpayable",
      "type": "function"
    },
    {
      "inputs": [
        {
          "internalType": "uint256",
          "name": "_tokenId",
          "type": "uint256"
        }
      ],
      "name": "tokenURI",
      "outputs": [
        {
          "internalType": "string",
          "name": "",
          "type": "string"
        }
      ],
      "stateMutability": "view",
      "type": "function",
      "constant": true
    },
    {
      "inputs": [
        {
          "internalType": "uint256",
          "name": "_tokenId",
          "type": "uint256"
        }
      ],
      "name": "getGenes",
      "outputs": [
        {
          "internalType": "uint256",
          "name": "",
          "type": "uint256"
        }
      ],
      "stateMutability": "view",
      "type": "function",
      "constant": true
    },
    {
      "inputs": [
        {
          "internalType": "uint256",
          "name": "_tokenId",
          "type": "uint256"
        },
        {
          "internalType": "uint256",
          "name": "_genes",
          "type": "uint256"
        }
      ],
      "name": "setGenes",
      "outputs": [],
      "stateMutability": "nonpayable",
      "type": "function"
    },
    {
      "inputs": [
        {
          "internalType": "uint256",
          "name": "_tokenId",
          "type": "uint256"
        },
        {
          "internalType": "uint256",
          "name": "_rarity",
          "type": "uint256"
        }
      ],
      "name": "setRarity",
      "outputs": [],
      "stateMutability": "nonpayable",
      "type": "function"
    },
    {
      "inputs": [
        {
          "internalType": "uint256",
          "name": "_tokenId",
          "type": "uint256"
        }
      ],
      "name": "getRarity",
      "outputs": [
        {
          "internalType": "uint256",
          "name": "",
          "type": "uint256"
        }
      ],
      "stateMutability": "view",
      "type": "function",
      "constant": true
    },
    {
      "inputs": [],
      "name": "getReward",
      "outputs": [],
      "stateMutability": "nonpayable",
      "type": "function"
    },
    {
      "inputs": [
        {
          "internalType": "address",
          "name": "from",
          "type": "address"
        },
        {
          "internalType": "address",
          "name": "to",
          "type": "address"
        },
        {
          "internalType": "uint256",
          "name": "tokenId",
          "type": "uint256"
        }
      ],
      "name": "transferFrom",
      "outputs": [],
      "stateMutability": "nonpayable",
      "type": "function"
    },
    {
      "inputs": [
        {
          "internalType": "address",
          "name": "from",
          "type": "address"
        },
        {
          "internalType": "address",
          "name": "to",
          "type": "address"
        },
        {
          "internalType": "uint256",
          "name": "tokenId",
          "type": "uint256"
        }
      ],
      "name": "safeTransferFrom",
      "outputs": [],
      "stateMutability": "nonpayable",
      "type": "function"
    },
    {
      "inputs": [
        {
          "internalType": "address",
          "name": "from",
          "type": "address"
        },
        {
          "internalType": "address",
          "name": "to",
          "type": "address"
        },
        {
          "internalType": "uint256",
          "name": "tokenId",
          "type": "uint256"
        },
        {
          "internalType": "bytes",
          "name": "_data",
          "type": "bytes"
        }
      ],
      "name": "safeTransferFrom",
      "outputs": [],
      "stateMutability": "nonpayable",
      "type": "function"
    },
    {
      "inputs": [
        {
          "internalType": "bytes4",
          "name": "interfaceId",
          "type": "bytes4"
        }
      ],
      "name": "supportsInterface",
      "outputs": [
        {
          "internalType": "bool",
          "name": "",
          "type": "bool"
        }
      ],
      "stateMutability": "view",
      "type": "function",
      "constant": true
    },
    {
      "inputs": [
        {
          "internalType": "bool",
          "name": "_state",
          "type": "bool"
        }
      ],
      "name": "setRewardsActive",
      "outputs": [],
      "stateMutability": "nonpayable",
      "type": "function"
    },
    {
      "inputs": [
        {
          "internalType": "address",
          "name": "_yield",
          "type": "address"
        }
      ],
      "name": "setYieldToken",
      "outputs": [],
      "stateMutability": "nonpayable",
      "type": "function"
    },
    {
      "inputs": [
        {
          "internalType": "address",
          "name": "_manager",
          "type": "address"
        }
      ],
      "name": "setMetadataManager",
      "outputs": [],
      "stateMutability": "nonpayable",
      "type": "function"
    },
    {
      "inputs": [
        {
          "internalType": "address",
          "name": "_tokenAddress",
          "type": "address"
        },
        {
          "internalType": "uint256",
          "name": "_tokenAmount",
          "type": "uint256"
        }
      ],
      "name": "recoverERC20",
      "outputs": [],
      "stateMutability": "nonpayable",
      "type": "function"
    }
  ],
  "bytecode": "0x60806040523480156200001157600080fd5b50604051620052a7380380620052a7833981810160405281019062000037919062000475565b8181620000596200004d6200011560201b60201c565b6200011d60201b60201c565b81600290805190602001906200007192919062000353565b5080600390805190602001906200008a92919062000353565b505050620000b16000801b620000a56200011560201b60201c565b620001e160201b60201c565b620000f27f9f2df0fed2c77648de5860a4cc508cd0818c85b8b8a1ab4ceeef8d981c8956a6620000e66200011560201b60201c565b620001e160201b60201c565b6000600e60006101000a81548160ff021916908315150217905550505062000619565b600033905090565b60008060009054906101000a900473ffffffffffffffffffffffffffffffffffffffff169050816000806101000a81548173ffffffffffffffffffffffffffffffffffffffff021916908373ffffffffffffffffffffffffffffffffffffffff1602179055508173ffffffffffffffffffffffffffffffffffffffff168173ffffffffffffffffffffffffffffffffffffffff167f8be0079c531659141344cd1fd0a4f28419497f9722a3daafe3b4186f6b6457e060405160405180910390a35050565b620001f38282620001f760201b60201c565b5050565b620002098282620002e860201b60201c565b620002e457600180600084815260200190815260200160002060000160008373ffffffffffffffffffffffffffffffffffffffff1673ffffffffffffffffffffffffffffffffffffffff16815260200190815260200160002060006101000a81548160ff021916908315150217905550620002896200011560201b60201c565b73ffffffffffffffffffffffffffffffffffffffff168173ffffffffffffffffffffffffffffffffffffffff16837f2f8788117e7eff1d82e926ec794901d17c78024a50270940304540a733656f0d60405160405180910390a45b5050565b60006001600084815260200190815260200160002060000160008373ffffffffffffffffffffffffffffffffffffffff1673ffffffffffffffffffffffffffffffffffffffff16815260200190815260200160002060009054906101000a900460ff16905092915050565b828054620003619062000585565b90600052602060002090601f016020900481019282620003855760008555620003d1565b82601f10620003a057805160ff1916838001178555620003d1565b82800160010185558215620003d1579182015b82811115620003d0578251825591602001919060010190620003b3565b5b509050620003e09190620003e4565b5090565b5b80821115620003ff576000816000905550600101620003e5565b5090565b60006200041a62000414846200051c565b620004e8565b9050828152602081018484840111156200043357600080fd5b620004408482856200054f565b509392505050565b600082601f8301126200045a57600080fd5b81516200046c84826020860162000403565b91505092915050565b600080604083850312156200048957600080fd5b600083015167ffffffffffffffff811115620004a457600080fd5b620004b28582860162000448565b925050602083015167ffffffffffffffff811115620004d057600080fd5b620004de8582860162000448565b9150509250929050565b6000604051905081810181811067ffffffffffffffff82111715620005125762000511620005ea565b5b8060405250919050565b600067ffffffffffffffff8211156200053a5762000539620005ea565b5b601f19601f8301169050602081019050919050565b60005b838110156200056f57808201518184015260208101905062000552565b838111156200057f576000848401525b50505050565b600060028204905060018216806200059e57607f821691505b60208210811415620005b557620005b4620005bb565b5b50919050565b7f4e487b7100000000000000000000000000000000000000000000000000000000600052602260045260246000fd5b7f4e487b7100000000000000000000000000000000000000000000000000000000600052604160045260246000fd5b614c7e80620006296000396000f3fe608060405234801561001057600080fd5b50600436106102535760003560e01c806370a0823111610146578063a519121a116100c3578063d539139311610087578063d539139314610732578063d547741f14610750578063e984d7941461076c578063e985e9c514610788578063f1c84772146107b8578063f2fde38b146107d457610253565b8063a519121a1461067a578063b88d4fde14610698578063c0081ae1146106b4578063c87b56dd146106e6578063ca80b4891461071657610253565b806391d148541161010a57806391d14854146105c257806395d89b41146105f2578063a217fddf14610610578063a22cb4651461062e578063a2e4b12e1461064a57610253565b806370a0823114610530578063715018a61461056057806376d5de851461056a5780638980f11f146105885780638da5cb5b146105a457610253565b80632f2ff15d116101d457806342842e0e1161019857806342842e0e1461046657806348758697146104825780634c9e91a4146104b25780634f6ccce7146104d05780636352211e1461050057610253565b80632f2ff15d146103c45780632f745c59146103e057806336568abe1461041057806338712d8d1461042c5780633d18b9121461045c57610253565b8063156e29f61161021b578063156e29f61461030e57806318160ddd1461033e57806323b872dd1461035c57806323ffce8514610378578063248a9ca31461039457610253565b806301ffc9a71461025857806306fdde0314610288578063081812fc146102a6578063095ea7b3146102d6578063124cc077146102f2575b600080fd5b610272600480360381019061026d9190613884565b6107f0565b60405161027f9190614420565b60405180910390f35b610290610802565b60405161029d919061448c565b60405180910390f35b6102c060048036038101906102bb9190613917565b610894565b6040516102cd9190614322565b60405180910390f35b6102f060048036038101906102eb9190613742565b610919565b005b61030c600480360381019061030791906135d7565b610a31565b005b6103286004803603810190610323919061377e565b610af1565b604051610335919061476e565b60405180910390f35b610346610c3e565b604051610353919061476e565b60405180910390f35b6103766004803603810190610371919061363c565b610c4b565b005b610392600480360381019061038d91906135d7565b610da0565b005b6103ae60048036038101906103a9919061381f565b610e60565b6040516103bb919061443b565b60405180910390f35b6103de60048036038101906103d99190613848565b610e80565b005b6103fa60048036038101906103f59190613742565b610ea9565b604051610407919061476e565b60405180910390f35b61042a60048036038101906104259190613848565b610f4e565b005b610446600480360381019061044191906135d7565b610fd1565b604051610453919061476e565b60405180910390f35b610464610fe9565b005b610480600480360381019061047b919061363c565b611160565b005b61049c60048036038101906104979190613917565b611180565b6040516104a9919061476e565b60405180910390f35b6104ba6111a0565b6040516104c79190614456565b60405180910390f35b6104ea60048036038101906104e59190613917565b6111c6565b6040516104f7919061476e565b60405180910390f35b61051a60048036038101906105159190613917565b61125d565b6040516105279190614322565b60405180910390f35b61054a600480360381019061054591906135d7565b61130f565b604051610557919061476e565b60405180910390f35b6105686113c7565b005b61057261144f565b60405161057f9190614471565b60405180910390f35b6105a2600480360381019061059d9190613742565b611475565b005b6105ac61158a565b6040516105b99190614322565b60405180910390f35b6105dc60048036038101906105d79190613848565b6115b3565b6040516105e99190614420565b60405180910390f35b6105fa61161e565b604051610607919061448c565b60405180910390f35b6106186116b0565b604051610625919061443b565b60405180910390f35b61064860048036038101906106439190613706565b6116b7565b005b610664600480360381019061065f9190613917565b611838565b604051610671919061476e565b60405180910390f35b610682611858565b60405161068f9190614420565b60405180910390f35b6106b260048036038101906106ad919061368b565b61186b565b005b6106ce60048036038101906106c99190613917565b6119c2565b6040516106dd93929190614789565b60405180910390f35b61070060048036038101906106fb9190613917565b6119ec565b60405161070d919061448c565b60405180910390f35b610730600480360381019061072b9190613940565b611aed565b005b61073a611b82565b604051610747919061443b565b60405180910390f35b61076a60048036038101906107659190613848565b611ba6565b005b61078660048036038101906107819190613940565b611bcf565b005b6107a2600480360381019061079d9190613600565b611c64565b6040516107af9190614420565b60405180910390f35b6107d260048036038101906107cd91906137cd565b611cf8565b005b6107ee60048036038101906107e991906135d7565b611d91565b005b60006107fb82611e89565b9050919050565b60606002805461081190614abc565b80601f016020809104026020016040519081016040528092919081815260200182805461083d90614abc565b801561088a5780601f1061085f5761010080835404028352916020019161088a565b820191906000526020600020905b81548152906001019060200180831161086d57829003601f168201915b5050505050905090565b600061089f82611f03565b6108de576040517f08c379a00000000000000000000000000000000000000000000000000000000081526004016108d59061466e565b60405180910390fd5b6006600083815260200190815260200160002060009054906101000a900473ffffffffffffffffffffffffffffffffffffffff169050919050565b60006109248261125d565b90508073ffffffffffffffffffffffffffffffffffffffff168373ffffffffffffffffffffffffffffffffffffffff161415610995576040517f08c379a000000000000000000000000000000000000000000000000000000000815260040161098c906146ee565b60405180910390fd5b8073ffffffffffffffffffffffffffffffffffffffff166109b4611f6f565b73ffffffffffffffffffffffffffffffffffffffff1614806109e357506109e2816109dd611f6f565b611c64565b5b610a22576040517f08c379a0000000000000000000000000000000000000000000000000000000008152600401610a19906145ce565b60405180910390fd5b610a2c8383611f77565b505050565b610a39611f6f565b73ffffffffffffffffffffffffffffffffffffffff16610a5761158a565b73ffffffffffffffffffffffffffffffffffffffff1614610aad576040517f08c379a0000000000000000000000000000000000000000000000000000000008152600401610aa49061468e565b60405180910390fd5b80600f60006101000a81548173ffffffffffffffffffffffffffffffffffffffff021916908373ffffffffffffffffffffffffffffffffffffffff16021790555050565b6000610b247f9f2df0fed2c77648de5860a4cc508cd0818c85b8b8a1ab4ceeef8d981c8956a6610b1f611f6f565b6115b3565b610b63576040517f08c379a0000000000000000000000000000000000000000000000000000000008152600401610b5a906145ee565b60405180910390fd5b60006001610b6f610c3e565b610b799190614894565b9050604051806060016040528085815260200142815260200184815250600c6000838152602001908152602001600020600082015181600001556020820151816001015560408201518160020155905050610bd48582612030565b610fa08111610c3357600d60008673ffffffffffffffffffffffffffffffffffffffff1673ffffffffffffffffffffffffffffffffffffffff1681526020019081526020016000206000815480929190610c2d90614aee565b91905055505b809150509392505050565b6000600a80549050905090565b600e60019054906101000a900473ffffffffffffffffffffffffffffffffffffffff1673ffffffffffffffffffffffffffffffffffffffff16632c8e8dfa8484846040518463ffffffff1660e01b8152600401610caa93929190614374565b600060405180830381600087803b158015610cc457600080fd5b505af1158015610cd8573d6000803e3d6000fd5b50505050610fa08111610d9057600d60008473ffffffffffffffffffffffffffffffffffffffff1673ffffffffffffffffffffffffffffffffffffffff1681526020019081526020016000206000815480929190610d3590614a92565b9190505550600d60008373ffffffffffffffffffffffffffffffffffffffff1673ffffffffffffffffffffffffffffffffffffffff1681526020019081526020016000206000815480929190610d8a90614aee565b91905055505b610d9b8383836121fe565b505050565b610da8611f6f565b73ffffffffffffffffffffffffffffffffffffffff16610dc661158a565b73ffffffffffffffffffffffffffffffffffffffff1614610e1c576040517f08c379a0000000000000000000000000000000000000000000000000000000008152600401610e139061468e565b60405180910390fd5b80600e60016101000a81548173ffffffffffffffffffffffffffffffffffffffff021916908373ffffffffffffffffffffffffffffffffffffffff16021790555050565b600060016000838152602001908152602001600020600101549050919050565b610e8982610e60565b610e9a81610e95611f6f565b61225e565b610ea483836122fb565b505050565b6000610eb48361130f565b8210610ef5576040517f08c379a0000000000000000000000000000000000000000000000000000000008152600401610eec906144ee565b60405180910390fd5b600860008473ffffffffffffffffffffffffffffffffffffffff1673ffffffffffffffffffffffffffffffffffffffff168152602001908152602001600020600083815260200190815260200160002054905092915050565b610f56611f6f565b73ffffffffffffffffffffffffffffffffffffffff168173ffffffffffffffffffffffffffffffffffffffff1614610fc3576040517f08c379a0000000000000000000000000000000000000000000000000000000008152600401610fba9061474e565b60405180910390fd5b610fcd82826123db565b5050565b600d6020528060005260406000206000915090505481565b60011515600e60009054906101000a900460ff1615151461103f576040517f08c379a0000000000000000000000000000000000000000000000000000000008152600401611036906144ce565b60405180910390fd5b600e60019054906101000a900473ffffffffffffffffffffffffffffffffffffffff1673ffffffffffffffffffffffffffffffffffffffff16632c8e8dfa336000806040518463ffffffff1660e01b815260040161109f9392919061433d565b600060405180830381600087803b1580156110b957600080fd5b505af11580156110cd573d6000803e3d6000fd5b50505050600e60019054906101000a900473ffffffffffffffffffffffffffffffffffffffff1673ffffffffffffffffffffffffffffffffffffffff1663c00007b0336040518263ffffffff1660e01b815260040161112c9190614322565b600060405180830381600087803b15801561114657600080fd5b505af115801561115a573d6000803e3d6000fd5b50505050565b61117b8383836040518060200160405280600081525061186b565b505050565b6000600c6000838152602001908152602001600020600201549050919050565b600f60009054906101000a900473ffffffffffffffffffffffffffffffffffffffff1681565b60006111d0610c3e565b8210611211576040517f08c379a00000000000000000000000000000000000000000000000000000000081526004016112089061472e565b60405180910390fd5b600a828154811061124b577f4e487b7100000000000000000000000000000000000000000000000000000000600052603260045260246000fd5b90600052602060002001549050919050565b6000806004600084815260200190815260200160002060009054906101000a900473ffffffffffffffffffffffffffffffffffffffff169050600073ffffffffffffffffffffffffffffffffffffffff168173ffffffffffffffffffffffffffffffffffffffff161415611306576040517f08c379a00000000000000000000000000000000000000000000000000000000081526004016112fd9061462e565b60405180910390fd5b80915050919050565b60008073ffffffffffffffffffffffffffffffffffffffff168273ffffffffffffffffffffffffffffffffffffffff161415611380576040517f08c379a00000000000000000000000000000000000000000000000000000000081526004016113779061460e565b60405180910390fd5b600560008373ffffffffffffffffffffffffffffffffffffffff1673ffffffffffffffffffffffffffffffffffffffff168152602001908152602001600020549050919050565b6113cf611f6f565b73ffffffffffffffffffffffffffffffffffffffff166113ed61158a565b73ffffffffffffffffffffffffffffffffffffffff1614611443576040517f08c379a000000000000000000000000000000000000000000000000000000000815260040161143a9061468e565b60405180910390fd5b61144d60006124bd565b565b600e60019054906101000a900473ffffffffffffffffffffffffffffffffffffffff1681565b61147d611f6f565b73ffffffffffffffffffffffffffffffffffffffff1661149b61158a565b73ffffffffffffffffffffffffffffffffffffffff16146114f1576040517f08c379a00000000000000000000000000000000000000000000000000000000081526004016114e89061468e565b60405180910390fd5b8173ffffffffffffffffffffffffffffffffffffffff1663a9059cbb61151561158a565b836040518363ffffffff1660e01b81526004016115339291906143f7565b602060405180830381600087803b15801561154d57600080fd5b505af1158015611561573d6000803e3d6000fd5b505050506040513d601f19601f8201168201806040525081019061158591906137f6565b505050565b60008060009054906101000a900473ffffffffffffffffffffffffffffffffffffffff16905090565b60006001600084815260200190815260200160002060000160008373ffffffffffffffffffffffffffffffffffffffff1673ffffffffffffffffffffffffffffffffffffffff16815260200190815260200160002060009054906101000a900460ff16905092915050565b60606003805461162d90614abc565b80601f016020809104026020016040519081016040528092919081815260200182805461165990614abc565b80156116a65780601f1061167b576101008083540402835291602001916116a6565b820191906000526020600020905b81548152906001019060200180831161168957829003601f168201915b5050505050905090565b6000801b81565b6116bf611f6f565b73ffffffffffffffffffffffffffffffffffffffff168273ffffffffffffffffffffffffffffffffffffffff16141561172d576040517f08c379a00000000000000000000000000000000000000000000000000000000081526004016117249061458e565b60405180910390fd5b806007600061173a611f6f565b73ffffffffffffffffffffffffffffffffffffffff1673ffffffffffffffffffffffffffffffffffffffff16815260200190815260200160002060008473ffffffffffffffffffffffffffffffffffffffff1673ffffffffffffffffffffffffffffffffffffffff16815260200190815260200160002060006101000a81548160ff0219169083151502179055508173ffffffffffffffffffffffffffffffffffffffff166117e7611f6f565b73ffffffffffffffffffffffffffffffffffffffff167f17307eab39ab6107e8899845ad3d59bd9653f200f220920489ca2b5937696c318360405161182c9190614420565b60405180910390a35050565b6000600c6000838152602001908152602001600020600001549050919050565b600e60009054906101000a900460ff1681565b600e60019054906101000a900473ffffffffffffffffffffffffffffffffffffffff1673ffffffffffffffffffffffffffffffffffffffff16632c8e8dfa8585856040518463ffffffff1660e01b81526004016118ca93929190614374565b600060405180830381600087803b1580156118e457600080fd5b505af11580156118f8573d6000803e3d6000fd5b50505050610fa082116119b057600d60008573ffffffffffffffffffffffffffffffffffffffff1673ffffffffffffffffffffffffffffffffffffffff168152602001908152602001600020600081548092919061195590614a92565b9190505550600d60008473ffffffffffffffffffffffffffffffffffffffff1673ffffffffffffffffffffffffffffffffffffffff16815260200190815260200160002060008154809291906119aa90614aee565b91905055505b6119bc84848484612581565b50505050565b600c6020528060005260406000206000915090508060000154908060010154908060020154905083565b60606119f782611f03565b611a36576040517f08c379a0000000000000000000000000000000000000000000000000000000008152600401611a2d906146ce565b60405180910390fd5b600f60009054906101000a900473ffffffffffffffffffffffffffffffffffffffff1673ffffffffffffffffffffffffffffffffffffffff1663c87b56dd836040518263ffffffff1660e01b8152600401611a91919061476e565b60006040518083038186803b158015611aa957600080fd5b505afa158015611abd573d6000803e3d6000fd5b505050506040513d6000823e3d601f19601f82011682018060405250810190611ae691906138d6565b9050919050565b611b1e7f9f2df0fed2c77648de5860a4cc508cd0818c85b8b8a1ab4ceeef8d981c8956a6611b19611f6f565b6115b3565b611b5d576040517f08c379a0000000000000000000000000000000000000000000000000000000008152600401611b54906145ee565b60405180910390fd5b6000600c60008481526020019081526020016000209050818160000181905550505050565b7f9f2df0fed2c77648de5860a4cc508cd0818c85b8b8a1ab4ceeef8d981c8956a681565b611baf82610e60565b611bc081611bbb611f6f565b61225e565b611bca83836123db565b505050565b611c007f9f2df0fed2c77648de5860a4cc508cd0818c85b8b8a1ab4ceeef8d981c8956a6611bfb611f6f565b6115b3565b611c3f576040517f08c379a0000000000000000000000000000000000000000000000000000000008152600401611c36906145ee565b60405180910390fd5b6000600c60008481526020019081526020016000209050818160020181905550505050565b6000600760008473ffffffffffffffffffffffffffffffffffffffff1673ffffffffffffffffffffffffffffffffffffffff16815260200190815260200160002060008373ffffffffffffffffffffffffffffffffffffffff1673ffffffffffffffffffffffffffffffffffffffff16815260200190815260200160002060009054906101000a900460ff16905092915050565b611d00611f6f565b73ffffffffffffffffffffffffffffffffffffffff16611d1e61158a565b73ffffffffffffffffffffffffffffffffffffffff1614611d74576040517f08c379a0000000000000000000000000000000000000000000000000000000008152600401611d6b9061468e565b60405180910390fd5b80600e60006101000a81548160ff02191690831515021790555050565b611d99611f6f565b73ffffffffffffffffffffffffffffffffffffffff16611db761158a565b73ffffffffffffffffffffffffffffffffffffffff1614611e0d576040517f08c379a0000000000000000000000000000000000000000000000000000000008152600401611e049061468e565b60405180910390fd5b600073ffffffffffffffffffffffffffffffffffffffff168173ffffffffffffffffffffffffffffffffffffffff161415611e7d576040517f08c379a0000000000000000000000000000000000000000000000000000000008152600401611e749061452e565b60405180910390fd5b611e86816124bd565b50565b60007f780e9d63000000000000000000000000000000000000000000000000000000007bffffffffffffffffffffffffffffffffffffffffffffffffffffffff1916827bffffffffffffffffffffffffffffffffffffffffffffffffffffffff19161480611efc5750611efb826125e3565b5b9050919050565b60008073ffffffffffffffffffffffffffffffffffffffff166004600084815260200190815260200160002060009054906101000a900473ffffffffffffffffffffffffffffffffffffffff1673ffffffffffffffffffffffffffffffffffffffff1614159050919050565b600033905090565b816006600083815260200190815260200160002060006101000a81548173ffffffffffffffffffffffffffffffffffffffff021916908373ffffffffffffffffffffffffffffffffffffffff160217905550808273ffffffffffffffffffffffffffffffffffffffff16611fea8361125d565b73ffffffffffffffffffffffffffffffffffffffff167f8c5be1e5ebec7d5bd14f71427d1e84f3dd0314c0f7b2291e5b200ac8c7c3b92560405160405180910390a45050565b600073ffffffffffffffffffffffffffffffffffffffff168273ffffffffffffffffffffffffffffffffffffffff1614156120a0576040517f08c379a00000000000000000000000000000000000000000000000000000000081526004016120979061464e565b60405180910390fd5b6120a981611f03565b156120e9576040517f08c379a00000000000000000000000000000000000000000000000000000000081526004016120e09061454e565b60405180910390fd5b6120f5600083836126c5565b6001600560008473ffffffffffffffffffffffffffffffffffffffff1673ffffffffffffffffffffffffffffffffffffffff16815260200190815260200160002060008282546121459190614894565b92505081905550816004600083815260200190815260200160002060006101000a81548173ffffffffffffffffffffffffffffffffffffffff021916908373ffffffffffffffffffffffffffffffffffffffff160217905550808273ffffffffffffffffffffffffffffffffffffffff16600073ffffffffffffffffffffffffffffffffffffffff167fddf252ad1be2c89b69c2b068fc378daa952ba7f163c4a11628f55a4df523b3ef60405160405180910390a45050565b61220f612209611f6f565b826127d9565b61224e576040517f08c379a00000000000000000000000000000000000000000000000000000000081526004016122459061470e565b60405180910390fd5b6122598383836128b7565b505050565b61226882826115b3565b6122f75761228d8173ffffffffffffffffffffffffffffffffffffffff166014612b13565b61229b8360001c6020612b13565b6040516020016122ac9291906142e8565b6040516020818303038152906040526040517f08c379a00000000000000000000000000000000000000000000000000000000081526004016122ee919061448c565b60405180910390fd5b5050565b61230582826115b3565b6123d757600180600084815260200190815260200160002060000160008373ffffffffffffffffffffffffffffffffffffffff1673ffffffffffffffffffffffffffffffffffffffff16815260200190815260200160002060006101000a81548160ff02191690831515021790555061237c611f6f565b73ffffffffffffffffffffffffffffffffffffffff168173ffffffffffffffffffffffffffffffffffffffff16837f2f8788117e7eff1d82e926ec794901d17c78024a50270940304540a733656f0d60405160405180910390a45b5050565b6123e582826115b3565b156124b95760006001600084815260200190815260200160002060000160008373ffffffffffffffffffffffffffffffffffffffff1673ffffffffffffffffffffffffffffffffffffffff16815260200190815260200160002060006101000a81548160ff02191690831515021790555061245e611f6f565b73ffffffffffffffffffffffffffffffffffffffff168173ffffffffffffffffffffffffffffffffffffffff16837ff6391f5c32d9c69d2a47ea670b442974b53935d1edc7fd64eb21e047a839171b60405160405180910390a45b5050565b60008060009054906101000a900473ffffffffffffffffffffffffffffffffffffffff169050816000806101000a81548173ffffffffffffffffffffffffffffffffffffffff021916908373ffffffffffffffffffffffffffffffffffffffff1602179055508173ffffffffffffffffffffffffffffffffffffffff168173ffffffffffffffffffffffffffffffffffffffff167f8be0079c531659141344cd1fd0a4f28419497f9722a3daafe3b4186f6b6457e060405160405180910390a35050565b61259261258c611f6f565b836127d9565b6125d1576040517f08c379a00000000000000000000000000000000000000000000000000000000081526004016125c89061470e565b60405180910390fd5b6125dd84848484612e0d565b50505050565b60007f80ac58cd000000000000000000000000000000000000000000000000000000007bffffffffffffffffffffffffffffffffffffffffffffffffffffffff1916827bffffffffffffffffffffffffffffffffffffffffffffffffffffffff191614806126ae57507f5b5e139f000000000000000000000000000000000000000000000000000000007bffffffffffffffffffffffffffffffffffffffffffffffffffffffff1916827bffffffffffffffffffffffffffffffffffffffffffffffffffffffff1916145b806126be57506126bd82612e69565b5b9050919050565b6126d0838383612ee3565b600073ffffffffffffffffffffffffffffffffffffffff168373ffffffffffffffffffffffffffffffffffffffff1614156127135761270e81612ee8565b612752565b8173ffffffffffffffffffffffffffffffffffffffff168373ffffffffffffffffffffffffffffffffffffffff1614612751576127508382612f31565b5b5b600073ffffffffffffffffffffffffffffffffffffffff168273ffffffffffffffffffffffffffffffffffffffff161415612795576127908161309e565b6127d4565b8273ffffffffffffffffffffffffffffffffffffffff168273ffffffffffffffffffffffffffffffffffffffff16146127d3576127d282826131e1565b5b5b505050565b60006127e482611f03565b612823576040517f08c379a000000000000000000000000000000000000000000000000000000000815260040161281a906145ae565b60405180910390fd5b600061282e8361125d565b90508073ffffffffffffffffffffffffffffffffffffffff168473ffffffffffffffffffffffffffffffffffffffff16148061289d57508373ffffffffffffffffffffffffffffffffffffffff1661288584610894565b73ffffffffffffffffffffffffffffffffffffffff16145b806128ae57506128ad8185611c64565b5b91505092915050565b8273ffffffffffffffffffffffffffffffffffffffff166128d78261125d565b73ffffffffffffffffffffffffffffffffffffffff161461292d576040517f08c379a0000000000000000000000000000000000000000000000000000000008152600401612924906146ae565b60405180910390fd5b600073ffffffffffffffffffffffffffffffffffffffff168273ffffffffffffffffffffffffffffffffffffffff16141561299d576040517f08c379a00000000000000000000000000000000000000000000000000000000081526004016129949061456e565b60405180910390fd5b6129a88383836126c5565b6129b3600082611f77565b6001600560008573ffffffffffffffffffffffffffffffffffffffff1673ffffffffffffffffffffffffffffffffffffffff1681526020019081526020016000206000828254612a039190614944565b925050819055506001600560008473ffffffffffffffffffffffffffffffffffffffff1673ffffffffffffffffffffffffffffffffffffffff1681526020019081526020016000206000828254612a5a9190614894565b92505081905550816004600083815260200190815260200160002060006101000a81548173ffffffffffffffffffffffffffffffffffffffff021916908373ffffffffffffffffffffffffffffffffffffffff160217905550808273ffffffffffffffffffffffffffffffffffffffff168473ffffffffffffffffffffffffffffffffffffffff167fddf252ad1be2c89b69c2b068fc378daa952ba7f163c4a11628f55a4df523b3ef60405160405180910390a4505050565b606060006002836002612b2691906148ea565b612b309190614894565b67ffffffffffffffff811115612b6f577f4e487b7100000000000000000000000000000000000000000000000000000000600052604160045260246000fd5b6040519080825280601f01601f191660200182016040528015612ba15781602001600182028036833780820191505090505b5090507f300000000000000000000000000000000000000000000000000000000000000081600081518110612bff577f4e487b7100000000000000000000000000000000000000000000000000000000600052603260045260246000fd5b60200101907effffffffffffffffffffffffffffffffffffffffffffffffffffffffffffff1916908160001a9053507f780000000000000000000000000000000000000000000000000000000000000081600181518110612c89577f4e487b7100000000000000000000000000000000000000000000000000000000600052603260045260246000fd5b60200101907effffffffffffffffffffffffffffffffffffffffffffffffffffffffffffff1916908160001a90535060006001846002612cc991906148ea565b612cd39190614894565b90505b6001811115612dbf577f3031323334353637383961626364656600000000000000000000000000000000600f861660108110612d3b577f4e487b7100000000000000000000000000000000000000000000000000000000600052603260045260246000fd5b1a60f81b828281518110612d78577f4e487b7100000000000000000000000000000000000000000000000000000000600052603260045260246000fd5b60200101907effffffffffffffffffffffffffffffffffffffffffffffffffffffffffffff1916908160001a905350600485901c945080612db890614a92565b9050612cd6565b5060008414612e03576040517f08c379a0000000000000000000000000000000000000000000000000000000008152600401612dfa906144ae565b60405180910390fd5b8091505092915050565b612e188484846128b7565b612e2484848484613260565b612e63576040517f08c379a0000000000000000000000000000000000000000000000000000000008152600401612e5a9061450e565b60405180910390fd5b50505050565b60007f7965db0b000000000000000000000000000000000000000000000000000000007bffffffffffffffffffffffffffffffffffffffffffffffffffffffff1916827bffffffffffffffffffffffffffffffffffffffffffffffffffffffff19161480612edc5750612edb826133f7565b5b9050919050565b505050565b600a80549050600b600083815260200190815260200160002081905550600a81908060018154018082558091505060019003906000526020600020016000909190919091505550565b60006001612f3e8461130f565b612f489190614944565b905060006009600084815260200190815260200160002054905081811461302d576000600860008673ffffffffffffffffffffffffffffffffffffffff1673ffffffffffffffffffffffffffffffffffffffff168152602001908152602001600020600084815260200190815260200160002054905080600860008773ffffffffffffffffffffffffffffffffffffffff1673ffffffffffffffffffffffffffffffffffffffff168152602001908152602001600020600084815260200190815260200160002081905550816009600083815260200190815260200160002081905550505b6009600084815260200190815260200160002060009055600860008573ffffffffffffffffffffffffffffffffffffffff1673ffffffffffffffffffffffffffffffffffffffff16815260200190815260200160002060008381526020019081526020016000206000905550505050565b60006001600a805490506130b29190614944565b90506000600b60008481526020019081526020016000205490506000600a8381548110613108577f4e487b7100000000000000000000000000000000000000000000000000000000600052603260045260246000fd5b9060005260206000200154905080600a8381548110613150577f4e487b7100000000000000000000000000000000000000000000000000000000600052603260045260246000fd5b906000526020600020018190555081600b600083815260200190815260200160002081905550600b600085815260200190815260200160002060009055600a8054806131c5577f4e487b7100000000000000000000000000000000000000000000000000000000600052603160045260246000fd5b6001900381819060005260206000200160009055905550505050565b60006131ec8361130f565b905081600860008573ffffffffffffffffffffffffffffffffffffffff1673ffffffffffffffffffffffffffffffffffffffff168152602001908152602001600020600083815260200190815260200160002081905550806009600084815260200190815260200160002081905550505050565b60006132818473ffffffffffffffffffffffffffffffffffffffff16613461565b156133ea578373ffffffffffffffffffffffffffffffffffffffff1663150b7a026132aa611f6f565b8786866040518563ffffffff1660e01b81526004016132cc94939291906143ab565b602060405180830381600087803b1580156132e657600080fd5b505af192505050801561331757506040513d601f19601f8201168201806040525081019061331491906138ad565b60015b61339a573d8060008114613347576040519150601f19603f3d011682016040523d82523d6000602084013e61334c565b606091505b50600081511415613392576040517f08c379a00000000000000000000000000000000000000000000000000000000081526004016133899061450e565b60405180910390fd5b805181602001fd5b63150b7a0260e01b7bffffffffffffffffffffffffffffffffffffffffffffffffffffffff1916817bffffffffffffffffffffffffffffffffffffffffffffffffffffffff1916149150506133ef565b600190505b949350505050565b60007f01ffc9a7000000000000000000000000000000000000000000000000000000007bffffffffffffffffffffffffffffffffffffffffffffffffffffffff1916827bffffffffffffffffffffffffffffffffffffffffffffffffffffffff1916149050919050565b600080823b905060008111915050919050565b6000613487613482846147f1565b6147c0565b90508281526020810184848401111561349f57600080fd5b6134aa848285614a50565b509392505050565b60006134c56134c084614821565b6147c0565b9050828152602081018484840111156134dd57600080fd5b6134e8848285614a5f565b509392505050565b6000813590506134ff81614bd5565b92915050565b60008135905061351481614bec565b92915050565b60008151905061352981614bec565b92915050565b60008135905061353e81614c03565b92915050565b60008135905061355381614c1a565b92915050565b60008151905061356881614c1a565b92915050565b600082601f83011261357f57600080fd5b813561358f848260208601613474565b91505092915050565b600082601f8301126135a957600080fd5b81516135b98482602086016134b2565b91505092915050565b6000813590506135d181614c31565b92915050565b6000602082840312156135e957600080fd5b60006135f7848285016134f0565b91505092915050565b6000806040838503121561361357600080fd5b6000613621858286016134f0565b9250506020613632858286016134f0565b9150509250929050565b60008060006060848603121561365157600080fd5b600061365f868287016134f0565b9350506020613670868287016134f0565b9250506040613681868287016135c2565b9150509250925092565b600080600080608085870312156136a157600080fd5b60006136af878288016134f0565b94505060206136c0878288016134f0565b93505060406136d1878288016135c2565b925050606085013567ffffffffffffffff8111156136ee57600080fd5b6136fa8782880161356e565b91505092959194509250565b6000806040838503121561371957600080fd5b6000613727858286016134f0565b925050602061373885828601613505565b9150509250929050565b6000806040838503121561375557600080fd5b6000613763858286016134f0565b9250506020613774858286016135c2565b9150509250929050565b60008060006060848603121561379357600080fd5b60006137a1868287016134f0565b93505060206137b2868287016135c2565b92505060406137c3868287016135c2565b9150509250925092565b6000602082840312156137df57600080fd5b60006137ed84828501613505565b91505092915050565b60006020828403121561380857600080fd5b60006138168482850161351a565b91505092915050565b60006020828403121561383157600080fd5b600061383f8482850161352f565b91505092915050565b6000806040838503121561385b57600080fd5b60006138698582860161352f565b925050602061387a858286016134f0565b9150509250929050565b60006020828403121561389657600080fd5b60006138a484828501613544565b91505092915050565b6000602082840312156138bf57600080fd5b60006138cd84828501613559565b91505092915050565b6000602082840312156138e857600080fd5b600082015167ffffffffffffffff81111561390257600080fd5b61390e84828501613598565b91505092915050565b60006020828403121561392957600080fd5b6000613937848285016135c2565b91505092915050565b6000806040838503121561395357600080fd5b6000613961858286016135c2565b9250506020613972858286016135c2565b9150509250929050565b61398581614978565b82525050565b6139948161498a565b82525050565b6139a381614996565b82525050565b60006139b482614851565b6139be8185614867565b93506139ce818560208601614a5f565b6139d781614bc4565b840191505092915050565b6139eb816149f6565b82525050565b6139fa81614a1a565b82525050565b613a0981614a3e565b82525050565b6000613a1a8261485c565b613a248185614878565b9350613a34818560208601614a5f565b613a3d81614bc4565b840191505092915050565b6000613a538261485c565b613a5d8185614889565b9350613a6d818560208601614a5f565b80840191505092915050565b6000613a86602083614878565b91507f537472696e67733a20686578206c656e67746820696e73756666696369656e746000830152602082019050919050565b6000613ac6601583614878565b91507f52657761726473206172656e27742061637469766500000000000000000000006000830152602082019050919050565b6000613b06602b83614878565b91507f455243373231456e756d657261626c653a206f776e657220696e646578206f7560008301527f74206f6620626f756e64730000000000000000000000000000000000000000006020830152604082019050919050565b6000613b6c603283614878565b91507f4552433732313a207472616e7366657220746f206e6f6e20455243373231526560008301527f63656976657220696d706c656d656e74657200000000000000000000000000006020830152604082019050919050565b6000613bd2602683614878565b91507f4f776e61626c653a206e6577206f776e657220697320746865207a65726f206160008301527f64647265737300000000000000000000000000000000000000000000000000006020830152604082019050919050565b6000613c38601c83614878565b91507f4552433732313a20746f6b656e20616c7265616479206d696e746564000000006000830152602082019050919050565b6000613c78602483614878565b91507f4552433732313a207472616e7366657220746f20746865207a65726f2061646460008301527f72657373000000000000000000000000000000000000000000000000000000006020830152604082019050919050565b6000613cde601983614878565b91507f4552433732313a20617070726f766520746f2063616c6c6572000000000000006000830152602082019050919050565b6000613d1e602c83614878565b91507f4552433732313a206f70657261746f7220717565727920666f72206e6f6e657860008301527f697374656e7420746f6b656e00000000000000000000000000000000000000006020830152604082019050919050565b6000613d84603883614878565b91507f4552433732313a20617070726f76652063616c6c6572206973206e6f74206f7760008301527f6e6572206e6f7220617070726f76656420666f7220616c6c00000000000000006020830152604082019050919050565b6000613dea602783614878565b91507f416363657373436f6e74726f6c3a2063616c6c6572206973206e6f742074686560008301527f206d696e746572000000000000000000000000000000000000000000000000006020830152604082019050919050565b6000613e50602a83614878565b91507f4552433732313a2062616c616e636520717565727920666f7220746865207a6560008301527f726f2061646472657373000000000000000000000000000000000000000000006020830152604082019050919050565b6000613eb6602983614878565b91507f4552433732313a206f776e657220717565727920666f72206e6f6e657869737460008301527f656e7420746f6b656e00000000000000000000000000000000000000000000006020830152604082019050919050565b6000613f1c602083614878565b91507f4552433732313a206d696e7420746f20746865207a65726f20616464726573736000830152602082019050919050565b6000613f5c602c83614878565b91507f4552433732313a20617070726f76656420717565727920666f72206e6f6e657860008301527f697374656e7420746f6b656e00000000000000000000000000000000000000006020830152604082019050919050565b6000613fc2602083614878565b91507f4f776e61626c653a2063616c6c6572206973206e6f7420746865206f776e65726000830152602082019050919050565b6000614002602983614878565b91507f4552433732313a207472616e73666572206f6620746f6b656e2074686174206960008301527f73206e6f74206f776e00000000000000000000000000000000000000000000006020830152604082019050919050565b6000614068602f83614878565b91507f4552433732314d657461646174613a2055524920717565727920666f72206e6f60008301527f6e6578697374656e7420746f6b656e00000000000000000000000000000000006020830152604082019050919050565b60006140ce602183614878565b91507f4552433732313a20617070726f76616c20746f2063757272656e74206f776e6560008301527f72000000000000000000000000000000000000000000000000000000000000006020830152604082019050919050565b6000614134603183614878565b91507f4552433732313a207472616e736665722063616c6c6572206973206e6f74206f60008301527f776e6572206e6f7220617070726f7665640000000000000000000000000000006020830152604082019050919050565b600061419a602c83614878565b91507f455243373231456e756d657261626c653a20676c6f62616c20696e646578206f60008301527f7574206f6620626f756e647300000000000000000000000000000000000000006020830152604082019050919050565b6000614200601783614889565b91507f416363657373436f6e74726f6c3a206163636f756e74200000000000000000006000830152601782019050919050565b6000614240601183614889565b91507f206973206d697373696e6720726f6c65200000000000000000000000000000006000830152601182019050919050565b6000614280602f83614878565b91507f416363657373436f6e74726f6c3a2063616e206f6e6c792072656e6f756e636560008301527f20726f6c657320666f722073656c6600000000000000000000000000000000006020830152604082019050919050565b6142e2816149ec565b82525050565b60006142f3826141f3565b91506142ff8285613a48565b915061430a82614233565b91506143168284613a48565b91508190509392505050565b6000602082019050614337600083018461397c565b92915050565b6000606082019050614352600083018661397c565b61435f602083018561397c565b61436c6040830184613a00565b949350505050565b6000606082019050614389600083018661397c565b614396602083018561397c565b6143a360408301846142d9565b949350505050565b60006080820190506143c0600083018761397c565b6143cd602083018661397c565b6143da60408301856142d9565b81810360608301526143ec81846139a9565b905095945050505050565b600060408201905061440c600083018561397c565b61441960208301846142d9565b9392505050565b6000602082019050614435600083018461398b565b92915050565b6000602082019050614450600083018461399a565b92915050565b600060208201905061446b60008301846139e2565b92915050565b600060208201905061448660008301846139f1565b92915050565b600060208201905081810360008301526144a68184613a0f565b905092915050565b600060208201905081810360008301526144c781613a79565b9050919050565b600060208201905081810360008301526144e781613ab9565b9050919050565b6000602082019050818103600083015261450781613af9565b9050919050565b6000602082019050818103600083015261452781613b5f565b9050919050565b6000602082019050818103600083015261454781613bc5565b9050919050565b6000602082019050818103600083015261456781613c2b565b9050919050565b6000602082019050818103600083015261458781613c6b565b9050919050565b600060208201905081810360008301526145a781613cd1565b9050919050565b600060208201905081810360008301526145c781613d11565b9050919050565b600060208201905081810360008301526145e781613d77565b9050919050565b6000602082019050818103600083015261460781613ddd565b9050919050565b6000602082019050818103600083015261462781613e43565b9050919050565b6000602082019050818103600083015261464781613ea9565b9050919050565b6000602082019050818103600083015261466781613f0f565b9050919050565b6000602082019050818103600083015261468781613f4f565b9050919050565b600060208201905081810360008301526146a781613fb5565b9050919050565b600060208201905081810360008301526146c781613ff5565b9050919050565b600060208201905081810360008301526146e78161405b565b9050919050565b60006020820190508181036000830152614707816140c1565b9050919050565b6000602082019050818103600083015261472781614127565b9050919050565b600060208201905081810360008301526147478161418d565b9050919050565b6000602082019050818103600083015261476781614273565b9050919050565b600060208201905061478360008301846142d9565b92915050565b600060608201905061479e60008301866142d9565b6147ab60208301856142d9565b6147b860408301846142d9565b949350505050565b6000604051905081810181811067ffffffffffffffff821117156147e7576147e6614b95565b5b8060405250919050565b600067ffffffffffffffff82111561480c5761480b614b95565b5b601f19601f8301169050602081019050919050565b600067ffffffffffffffff82111561483c5761483b614b95565b5b601f19601f8301169050602081019050919050565b600081519050919050565b600081519050919050565b600082825260208201905092915050565b600082825260208201905092915050565b600081905092915050565b600061489f826149ec565b91506148aa836149ec565b9250827fffffffffffffffffffffffffffffffffffffffffffffffffffffffffffffffff038211156148df576148de614b37565b5b828201905092915050565b60006148f5826149ec565b9150614900836149ec565b9250817fffffffffffffffffffffffffffffffffffffffffffffffffffffffffffffffff048311821515161561493957614938614b37565b5b828202905092915050565b600061494f826149ec565b915061495a836149ec565b92508282101561496d5761496c614b37565b5b828203905092915050565b6000614983826149cc565b9050919050565b60008115159050919050565b6000819050919050565b60007fffffffff0000000000000000000000000000000000000000000000000000000082169050919050565b600073ffffffffffffffffffffffffffffffffffffffff82169050919050565b6000819050919050565b6000614a0182614a08565b9050919050565b6000614a13826149cc565b9050919050565b6000614a2582614a2c565b9050919050565b6000614a37826149cc565b9050919050565b6000614a49826149ec565b9050919050565b82818337600083830152505050565b60005b83811015614a7d578082015181840152602081019050614a62565b83811115614a8c576000848401525b50505050565b6000614a9d826149ec565b91506000821415614ab157614ab0614b37565b5b600182039050919050565b60006002820490506001821680614ad457607f821691505b60208210811415614ae857614ae7614b66565b5b50919050565b6000614af9826149ec565b91507fffffffffffffffffffffffffffffffffffffffffffffffffffffffffffffffff821415614b2c57614b2b614b37565b5b600182019050919050565b7f4e487b7100000000000000000000000000000000000000000000000000000000600052601160045260246000fd5b7f4e487b7100000000000000000000000000000000000000000000000000000000600052602260045260246000fd5b7f4e487b7100000000000000000000000000000000000000000000000000000000600052604160045260246000fd5b6000601f19601f8301169050919050565b614bde81614978565b8114614be957600080fd5b50565b614bf58161498a565b8114614c0057600080fd5b50565b614c0c81614996565b8114614c1757600080fd5b50565b614c23816149a0565b8114614c2e57600080fd5b50565b614c3a816149ec565b8114614c4557600080fd5b5056fea2646970667358221220c2dd9b7b683e8336a035e6be18eb00175401c2d2283576f114da83158aa41e5b64736f6c63430008000033",
  "immutableReferences": {},
  "source": "// SPDX-License-Identifier: MIT\n\npragma solidity ^0.8.0;\n\nimport \"@openzeppelin/contracts/token/ERC721/extensions/ERC721Enumerable.sol\";\nimport \"@openzeppelin/contracts/access/AccessControl.sol\";\nimport \"@openzeppelin/contracts/token/ERC20/IERC20.sol\";\nimport \"@openzeppelin/contracts/access/Ownable.sol\";\nimport \"./interfaces/IMetadataManager.sol\";\nimport \"./interfaces/IYieldToken.sol\";\n\ncontract RisingSkullsNFT is Ownable, AccessControl, ERC721Enumerable {\n\tbytes32 public constant MINTER_ROLE = keccak256(\"MINTER_ROLE\");\n\n\tmodifier onlyMinter() {\n\t\trequire(hasRole(MINTER_ROLE, _msgSender()), \"AccessControl: caller is not the minter\");\n\t\t_;\n\t}\n\n\tstruct Skull {\n\t\tuint256 genes; // Used for ressurection. When genes = 0 the ressurected skull is in an incubation state.\n\t\tuint256 bornAt;\n\t\tuint256 rarity; // Rarity rank (1 - 4000). 1 = most rare, 4000 = least rare. Only applies to OG skulls.\n\t}\n\n\tmapping(uint256 => Skull) public skulls;\n\t// Owner address => token IDs. Stores ownerships of genesis skulls (ID 1-4000).\n\tmapping(address => uint256) public balanceOG;\n\tbool public rewardsActive;\n\n\tIYieldToken public yieldToken;\n\t// Metadata manager manages skull naming, bio and stats.\n\tIMetadataManager public metadataManager;\n\n\tevent SkullIncubated(uint256 tokenId, uint256 matron, uint256 sire);\n\tevent SkullBorn(uint256 tokenId, uint256 genes);\n\n\tconstructor(string memory _name, string memory _symbol) public ERC721(_name, _symbol) {\n\t\t// Contract owner is both minter and access control admin.\n\t\t_setupRole(DEFAULT_ADMIN_ROLE, _msgSender());\n\t\t_setupRole(MINTER_ROLE, _msgSender());\n\t\trewardsActive = false;\n\t}\n\n\tfunction mint(address to, uint256 genes, uint256 rarity) external onlyMinter returns (uint256) {\n\t\tuint256 id = totalSupply() + 1;\n\t\tskulls[id] = Skull(genes, block.timestamp, rarity);\n\n\t\t_mint(to, id);\n\n\t\tif (id <= 4000) {\n\t\t\tbalanceOG[to]++;\n\t\t}\n\t\treturn id;\n\t}\n\n\tfunction tokenURI(uint256 _tokenId) public view virtual override returns (string memory) {\n\t\trequire(_exists(_tokenId), \"ERC721Metadata: URI query for nonexistent token\");\n\t\treturn metadataManager.tokenURI(_tokenId);\n\t}\n\n\tfunction getGenes(uint256 _tokenId) external view returns (uint256) {\n\t\treturn skulls[_tokenId].genes;\n\t}\n\n\tfunction setGenes(uint256 _tokenId, uint256 _genes) external onlyMinter {\n\t\tSkull storage skull = skulls[_tokenId];\n\t\tskull.genes = _genes;\n\t}\n\n\tfunction setRarity(uint256 _tokenId, uint256 _rarity) external onlyMinter {\n\t\tSkull storage skull = skulls[_tokenId];\n\t\tskull.rarity = _rarity;\n\t}\n\n\tfunction getRarity(uint256 _tokenId) external view returns (uint256) {\n\t\treturn skulls[_tokenId].rarity;\n\t}\n\n\tfunction getReward() external {\n\t\trequire(rewardsActive == true, \"Rewards aren't active\");\n\t\tyieldToken.updateReward(msg.sender, address(0), 0);\n\t\tyieldToken.getReward(msg.sender);\n\t}\n\n\tfunction transferFrom(address from, address to, uint256 tokenId) public override {\n\t\tyieldToken.updateReward(from, to, tokenId);\n\t\tif (tokenId <= 4000)\n\t\t{\n\t\t\tbalanceOG[from]--;\n\t\t\tbalanceOG[to]++;\n\t\t}\n\t\tERC721.transferFrom(from, to, tokenId);\n\t}\n\n\tfunction safeTransferFrom(address from, address to, uint256 tokenId, bytes memory _data) public override {\n\t\tyieldToken.updateReward(from, to, tokenId);\n\t\tif (tokenId <= 4000)\n\t\t{\n\t\t\tbalanceOG[from]--;\n\t\t\tbalanceOG[to]++;\n\t\t}\n\t\tERC721.safeTransferFrom(from, to, tokenId, _data);\n\t}\n\n\tfunction supportsInterface(bytes4 interfaceId) public view virtual override(AccessControl, ERC721Enumerable) returns (bool) {\n\t\treturn super.supportsInterface(interfaceId);\n\t}\n\n\t/*\n\t* OWNER FUNCTIONS\n\t*/\n\tfunction setRewardsActive(bool _state) public onlyOwner {\n\t\trewardsActive = _state;\n\t}\n\n\tfunction setYieldToken(address _yield) external onlyOwner {\n\t\tyieldToken = IYieldToken(_yield);\n\t}\n\n\tfunction setMetadataManager(address _manager) external onlyOwner {\n\t\tmetadataManager = IMetadataManager(_manager);\n\t}\n\n\t/**\n\t * @dev Remember that only owner can call so be careful when use on contracts generated from other contracts.\n\t * @param _tokenAddress The token contract address\n\t * @param _tokenAmount Number of tokens to be sent\n\t */\n\tfunction recoverERC20(address _tokenAddress, uint256 _tokenAmount) public onlyOwner {\n\t\tIERC20(_tokenAddress).transfer(owner(), _tokenAmount);\n\t}\n}",
  "sourcePath": "/Users/reneVolution/Documents/Development/PiratesNFT/pirates-contracts/src/contracts/RisingSkullsNFT.sol",
  "compiler": {
    "name": "solc",
    "version": "0.8.0+commit.c7dfd78e.Emscripten.clang"
  },
  "schemaVersion": "3.4.3",
  "updatedAt": "2021-10-30T15:20:27.661Z",
  "networkType": "ethereum",
  "devdoc": {
    "kind": "dev",
    "methods": {
      "approve(address,uint256)": {
        "details": "See {IERC721-approve}."
      },
      "balanceOf(address)": {
        "details": "See {IERC721-balanceOf}."
      },
      "getApproved(uint256)": {
        "details": "See {IERC721-getApproved}."
      },
      "getRoleAdmin(bytes32)": {
        "details": "Returns the admin role that controls `role`. See {grantRole} and {revokeRole}. To change a role's admin, use {_setRoleAdmin}."
      },
      "grantRole(bytes32,address)": {
        "details": "Grants `role` to `account`. If `account` had not been already granted `role`, emits a {RoleGranted} event. Requirements: - the caller must have ``role``'s admin role."
      },
      "hasRole(bytes32,address)": {
        "details": "Returns `true` if `account` has been granted `role`."
      },
      "isApprovedForAll(address,address)": {
        "details": "See {IERC721-isApprovedForAll}."
      },
      "name()": {
        "details": "See {IERC721Metadata-name}."
      },
      "owner()": {
        "details": "Returns the address of the current owner."
      },
      "ownerOf(uint256)": {
        "details": "See {IERC721-ownerOf}."
      },
      "recoverERC20(address,uint256)": {
        "details": "Remember that only owner can call so be careful when use on contracts generated from other contracts.",
        "params": {
          "_tokenAddress": "The token contract address",
          "_tokenAmount": "Number of tokens to be sent"
        }
      },
      "renounceOwnership()": {
        "details": "Leaves the contract without owner. It will not be possible to call `onlyOwner` functions anymore. Can only be called by the current owner. NOTE: Renouncing ownership will leave the contract without an owner, thereby removing any functionality that is only available to the owner."
      },
      "renounceRole(bytes32,address)": {
        "details": "Revokes `role` from the calling account. Roles are often managed via {grantRole} and {revokeRole}: this function's purpose is to provide a mechanism for accounts to lose their privileges if they are compromised (such as when a trusted device is misplaced). If the calling account had been granted `role`, emits a {RoleRevoked} event. Requirements: - the caller must be `account`."
      },
      "revokeRole(bytes32,address)": {
        "details": "Revokes `role` from `account`. If `account` had been granted `role`, emits a {RoleRevoked} event. Requirements: - the caller must have ``role``'s admin role."
      },
      "safeTransferFrom(address,address,uint256)": {
        "details": "See {IERC721-safeTransferFrom}."
      },
      "safeTransferFrom(address,address,uint256,bytes)": {
        "details": "See {IERC721-safeTransferFrom}."
      },
      "setApprovalForAll(address,bool)": {
        "details": "See {IERC721-setApprovalForAll}."
      },
      "symbol()": {
        "details": "See {IERC721Metadata-symbol}."
      },
      "tokenByIndex(uint256)": {
        "details": "See {IERC721Enumerable-tokenByIndex}."
      },
      "tokenOfOwnerByIndex(address,uint256)": {
        "details": "See {IERC721Enumerable-tokenOfOwnerByIndex}."
      },
      "totalSupply()": {
        "details": "See {IERC721Enumerable-totalSupply}."
      },
      "transferFrom(address,address,uint256)": {
        "details": "See {IERC721-transferFrom}."
      },
      "transferOwnership(address)": {
        "details": "Transfers ownership of the contract to a new account (`newOwner`). Can only be called by the current owner."
      }
    },
    "version": 1
  },
  "userdoc": {
    "kind": "user",
    "methods": {},
    "version": 1
  }
}