{
  "contractName": "YieldToken",
  "abi": [
    {
      "inputs": [
        {
          "internalType": "address",
          "name": "_skulls",
          "type": "address"
        },
        {
          "internalType": "uint256",
          "name": "_supplyCap",
          "type": "uint256"
        }
      ],
      "stateMutability": "nonpayable",
      "type": "constructor"
    },
    {
      "anonymous": false,
      "inputs": [
        {
          "indexed": true,
          "internalType": "address",
          "name": "owner",
          "type": "address"
        },
        {
          "indexed": true,
          "internalType": "address",
          "name": "spender",
          "type": "address"
        },
        {
          "indexed": false,
          "internalType": "uint256",
          "name": "value",
          "type": "uint256"
        }
      ],
      "name": "Approval",
      "type": "event"
    },
    {
      "anonymous": false,
      "inputs": [
        {
          "indexed": true,
          "internalType": "address",
          "name": "previousOwner",
          "type": "address"
        },
        {
          "indexed": true,
          "internalType": "address",
          "name": "newOwner",
          "type": "address"
        }
      ],
      "name": "OwnershipTransferred",
      "type": "event"
    },
    {
      "anonymous": false,
      "inputs": [
        {
          "indexed": true,
          "internalType": "address",
          "name": "user",
          "type": "address"
        },
        {
          "indexed": false,
          "internalType": "uint256",
          "name": "reward",
          "type": "uint256"
        }
      ],
      "name": "RewardPaid",
      "type": "event"
    },
    {
      "anonymous": false,
      "inputs": [
        {
          "indexed": true,
          "internalType": "bytes32",
          "name": "role",
          "type": "bytes32"
        },
        {
          "indexed": true,
          "internalType": "bytes32",
          "name": "previousAdminRole",
          "type": "bytes32"
        },
        {
          "indexed": true,
          "internalType": "bytes32",
          "name": "newAdminRole",
          "type": "bytes32"
        }
      ],
      "name": "RoleAdminChanged",
      "type": "event"
    },
    {
      "anonymous": false,
      "inputs": [
        {
          "indexed": true,
          "internalType": "bytes32",
          "name": "role",
          "type": "bytes32"
        },
        {
          "indexed": true,
          "internalType": "address",
          "name": "account",
          "type": "address"
        },
        {
          "indexed": true,
          "internalType": "address",
          "name": "sender",
          "type": "address"
        }
      ],
      "name": "RoleGranted",
      "type": "event"
    },
    {
      "anonymous": false,
      "inputs": [
        {
          "indexed": true,
          "internalType": "bytes32",
          "name": "role",
          "type": "bytes32"
        },
        {
          "indexed": true,
          "internalType": "address",
          "name": "account",
          "type": "address"
        },
        {
          "indexed": true,
          "internalType": "address",
          "name": "sender",
          "type": "address"
        }
      ],
      "name": "RoleRevoked",
      "type": "event"
    },
    {
      "anonymous": false,
      "inputs": [
        {
          "indexed": true,
          "internalType": "address",
          "name": "from",
          "type": "address"
        },
        {
          "indexed": true,
          "internalType": "address",
          "name": "to",
          "type": "address"
        },
        {
          "indexed": false,
          "internalType": "uint256",
          "name": "value",
          "type": "uint256"
        }
      ],
      "name": "Transfer",
      "type": "event"
    },
    {
      "inputs": [],
      "name": "BURNER_ROLE",
      "outputs": [
        {
          "internalType": "bytes32",
          "name": "",
          "type": "bytes32"
        }
      ],
      "stateMutability": "view",
      "type": "function"
    },
    {
      "inputs": [],
      "name": "DEFAULT_ADMIN_ROLE",
      "outputs": [
        {
          "internalType": "bytes32",
          "name": "",
          "type": "bytes32"
        }
      ],
      "stateMutability": "view",
      "type": "function"
    },
    {
      "inputs": [],
      "name": "END",
      "outputs": [
        {
          "internalType": "uint256",
          "name": "",
          "type": "uint256"
        }
      ],
      "stateMutability": "view",
      "type": "function"
    },
    {
      "inputs": [],
      "name": "HIGH_RATE",
      "outputs": [
        {
          "internalType": "uint256",
          "name": "",
          "type": "uint256"
        }
      ],
      "stateMutability": "view",
      "type": "function"
    },
    {
      "inputs": [],
      "name": "LOW_RATE",
      "outputs": [
        {
          "internalType": "uint256",
          "name": "",
          "type": "uint256"
        }
      ],
      "stateMutability": "view",
      "type": "function"
    },
    {
      "inputs": [],
      "name": "MEDIUM_RATE",
      "outputs": [
        {
          "internalType": "uint256",
          "name": "",
          "type": "uint256"
        }
      ],
      "stateMutability": "view",
      "type": "function"
    },
    {
      "inputs": [],
      "name": "MINTER_ROLE",
      "outputs": [
        {
          "internalType": "bytes32",
          "name": "",
          "type": "bytes32"
        }
      ],
      "stateMutability": "view",
      "type": "function"
    },
    {
      "inputs": [
        {
          "internalType": "address",
          "name": "owner",
          "type": "address"
        },
        {
          "internalType": "address",
          "name": "spender",
          "type": "address"
        }
      ],
      "name": "allowance",
      "outputs": [
        {
          "internalType": "uint256",
          "name": "",
          "type": "uint256"
        }
      ],
      "stateMutability": "view",
      "type": "function"
    },
    {
      "inputs": [
        {
          "internalType": "address",
          "name": "spender",
          "type": "address"
        },
        {
          "internalType": "uint256",
          "name": "amount",
          "type": "uint256"
        }
      ],
      "name": "approve",
      "outputs": [
        {
          "internalType": "bool",
          "name": "",
          "type": "bool"
        }
      ],
      "stateMutability": "nonpayable",
      "type": "function"
    },
    {
      "inputs": [
        {
          "internalType": "address",
          "name": "account",
          "type": "address"
        }
      ],
      "name": "balanceOf",
      "outputs": [
        {
          "internalType": "uint256",
          "name": "",
          "type": "uint256"
        }
      ],
      "stateMutability": "view",
      "type": "function"
    },
    {
      "inputs": [],
      "name": "cap",
      "outputs": [
        {
          "internalType": "uint256",
          "name": "",
          "type": "uint256"
        }
      ],
      "stateMutability": "view",
      "type": "function"
    },
    {
      "inputs": [],
      "name": "decimals",
      "outputs": [
        {
          "internalType": "uint8",
          "name": "",
          "type": "uint8"
        }
      ],
      "stateMutability": "view",
      "type": "function"
    },
    {
      "inputs": [
        {
          "internalType": "address",
          "name": "spender",
          "type": "address"
        },
        {
          "internalType": "uint256",
          "name": "subtractedValue",
          "type": "uint256"
        }
      ],
      "name": "decreaseAllowance",
      "outputs": [
        {
          "internalType": "bool",
          "name": "",
          "type": "bool"
        }
      ],
      "stateMutability": "nonpayable",
      "type": "function"
    },
    {
      "inputs": [
        {
          "internalType": "bytes32",
          "name": "role",
          "type": "bytes32"
        }
      ],
      "name": "getRoleAdmin",
      "outputs": [
        {
          "internalType": "bytes32",
          "name": "",
          "type": "bytes32"
        }
      ],
      "stateMutability": "view",
      "type": "function"
    },
    {
      "inputs": [
        {
          "internalType": "bytes32",
          "name": "role",
          "type": "bytes32"
        },
        {
          "internalType": "address",
          "name": "account",
          "type": "address"
        }
      ],
      "name": "grantRole",
      "outputs": [],
      "stateMutability": "nonpayable",
      "type": "function"
    },
    {
      "inputs": [
        {
          "internalType": "bytes32",
          "name": "role",
          "type": "bytes32"
        },
        {
          "internalType": "address",
          "name": "account",
          "type": "address"
        }
      ],
      "name": "hasRole",
      "outputs": [
        {
          "internalType": "bool",
          "name": "",
          "type": "bool"
        }
      ],
      "stateMutability": "view",
      "type": "function"
    },
    {
      "inputs": [
        {
          "internalType": "address",
          "name": "spender",
          "type": "address"
        },
        {
          "internalType": "uint256",
          "name": "addedValue",
          "type": "uint256"
        }
      ],
      "name": "increaseAllowance",
      "outputs": [
        {
          "internalType": "bool",
          "name": "",
          "type": "bool"
        }
      ],
      "stateMutability": "nonpayable",
      "type": "function"
    },
    {
      "inputs": [
        {
          "internalType": "address",
          "name": "",
          "type": "address"
        }
      ],
      "name": "lastUpdate",
      "outputs": [
        {
          "internalType": "uint256",
          "name": "",
          "type": "uint256"
        }
      ],
      "stateMutability": "view",
      "type": "function"
    },
    {
      "inputs": [],
      "name": "name",
      "outputs": [
        {
          "internalType": "string",
          "name": "",
          "type": "string"
        }
      ],
      "stateMutability": "view",
      "type": "function"
    },
    {
      "inputs": [],
      "name": "owner",
      "outputs": [
        {
          "internalType": "address",
          "name": "",
          "type": "address"
        }
      ],
      "stateMutability": "view",
      "type": "function"
    },
    {
      "inputs": [],
      "name": "renounceOwnership",
      "outputs": [],
      "stateMutability": "nonpayable",
      "type": "function"
    },
    {
      "inputs": [
        {
          "internalType": "bytes32",
          "name": "role",
          "type": "bytes32"
        },
        {
          "internalType": "address",
          "name": "account",
          "type": "address"
        }
      ],
      "name": "renounceRole",
      "outputs": [],
      "stateMutability": "nonpayable",
      "type": "function"
    },
    {
      "inputs": [
        {
          "internalType": "bytes32",
          "name": "role",
          "type": "bytes32"
        },
        {
          "internalType": "address",
          "name": "account",
          "type": "address"
        }
      ],
      "name": "revokeRole",
      "outputs": [],
      "stateMutability": "nonpayable",
      "type": "function"
    },
    {
      "inputs": [
        {
          "internalType": "address",
          "name": "",
          "type": "address"
        }
      ],
      "name": "rewards",
      "outputs": [
        {
          "internalType": "uint256",
          "name": "",
          "type": "uint256"
        }
      ],
      "stateMutability": "view",
      "type": "function"
    },
    {
      "inputs": [],
      "name": "skullsContract",
      "outputs": [
        {
          "internalType": "contract ISkullsRising",
          "name": "",
          "type": "address"
        }
      ],
      "stateMutability": "view",
      "type": "function"
    },
    {
      "inputs": [
        {
          "internalType": "bytes4",
          "name": "interfaceId",
          "type": "bytes4"
        }
      ],
      "name": "supportsInterface",
      "outputs": [
        {
          "internalType": "bool",
          "name": "",
          "type": "bool"
        }
      ],
      "stateMutability": "view",
      "type": "function"
    },
    {
      "inputs": [],
      "name": "symbol",
      "outputs": [
        {
          "internalType": "string",
          "name": "",
          "type": "string"
        }
      ],
      "stateMutability": "view",
      "type": "function"
    },
    {
      "inputs": [],
      "name": "totalSupply",
      "outputs": [
        {
          "internalType": "uint256",
          "name": "",
          "type": "uint256"
        }
      ],
      "stateMutability": "view",
      "type": "function"
    },
    {
      "inputs": [
        {
          "internalType": "address",
          "name": "recipient",
          "type": "address"
        },
        {
          "internalType": "uint256",
          "name": "amount",
          "type": "uint256"
        }
      ],
      "name": "transfer",
      "outputs": [
        {
          "internalType": "bool",
          "name": "",
          "type": "bool"
        }
      ],
      "stateMutability": "nonpayable",
      "type": "function"
    },
    {
      "inputs": [
        {
          "internalType": "address",
          "name": "sender",
          "type": "address"
        },
        {
          "internalType": "address",
          "name": "recipient",
          "type": "address"
        },
        {
          "internalType": "uint256",
          "name": "amount",
          "type": "uint256"
        }
      ],
      "name": "transferFrom",
      "outputs": [
        {
          "internalType": "bool",
          "name": "",
          "type": "bool"
        }
      ],
      "stateMutability": "nonpayable",
      "type": "function"
    },
    {
      "inputs": [
        {
          "internalType": "address",
          "name": "newOwner",
          "type": "address"
        }
      ],
      "name": "transferOwnership",
      "outputs": [],
      "stateMutability": "nonpayable",
      "type": "function"
    },
    {
      "inputs": [],
      "name": "getTime",
      "outputs": [
        {
          "internalType": "uint256",
          "name": "",
          "type": "uint256"
        }
      ],
      "stateMutability": "view",
      "type": "function"
    },
    {
      "inputs": [
        {
          "internalType": "uint256",
          "name": "_tokenId",
          "type": "uint256"
        }
      ],
      "name": "getDailyRewardRate",
      "outputs": [
        {
          "internalType": "uint256",
          "name": "",
          "type": "uint256"
        }
      ],
      "stateMutability": "view",
      "type": "function"
    },
    {
      "inputs": [
        {
          "internalType": "address",
          "name": "_from",
          "type": "address"
        },
        {
          "internalType": "address",
          "name": "_to",
          "type": "address"
        },
        {
          "internalType": "uint256",
          "name": "_tokenId",
          "type": "uint256"
        }
      ],
      "name": "updateReward",
      "outputs": [],
      "stateMutability": "nonpayable",
      "type": "function"
    },
    {
      "inputs": [
        {
          "internalType": "address",
          "name": "_to",
          "type": "address"
        }
      ],
      "name": "getReward",
      "outputs": [],
      "stateMutability": "nonpayable",
      "type": "function"
    },
    {
      "inputs": [
        {
          "internalType": "address",
          "name": "_user",
          "type": "address"
        }
      ],
      "name": "getTotalClaimable",
      "outputs": [
        {
          "internalType": "uint256",
          "name": "",
          "type": "uint256"
        }
      ],
      "stateMutability": "view",
      "type": "function"
    },
    {
      "inputs": [
        {
          "internalType": "address",
          "name": "_tokenAddress",
          "type": "address"
        },
        {
          "internalType": "uint256",
          "name": "_tokenAmount",
          "type": "uint256"
        }
      ],
      "name": "recoverERC20",
      "outputs": [],
      "stateMutability": "nonpayable",
      "type": "function"
    },
    {
      "inputs": [
        {
          "internalType": "address",
          "name": "_account",
          "type": "address"
        },
        {
          "internalType": "uint256",
          "name": "_amount",
          "type": "uint256"
        }
      ],
      "name": "mint",
      "outputs": [],
      "stateMutability": "nonpayable",
      "type": "function"
    },
    {
      "inputs": [
        {
          "internalType": "address",
          "name": "_from",
          "type": "address"
        },
        {
          "internalType": "uint256",
          "name": "_amount",
          "type": "uint256"
        }
      ],
      "name": "burn",
      "outputs": [],
      "stateMutability": "nonpayable",
      "type": "function"
    }
  ],
  "bytecode": "0x60a0604052678ac7230489e8000060075567d02ab486cedc00006008556801158e460913d000006009553480156200003657600080fd5b50604051620041d2380380620041d283398181016040528101906200005c9190620004f8565b806040518060400160405280600581526020017f426f6e65730000000000000000000000000000000000000000000000000000008152506040518060400160405280600581526020017f424f4e45530000000000000000000000000000000000000000000000000000008152508160039080519060200190620000e19291906200041a565b508060049080519060200190620000fa9291906200041a565b5050506000811162000143576040517f08c379a00000000000000000000000000000000000000000000000000000000081526004016200013a906200057b565b60405180910390fd5b8060808181525050506200016c62000160620001d960201b60201c565b620001e160201b60201c565b620001906000801b62000184620001d960201b60201c565b620002a760201b60201c565b81600c60006101000a81548173ffffffffffffffffffffffffffffffffffffffff021916908373ffffffffffffffffffffffffffffffffffffffff160217905550505062000685565b600033905090565b6000600560009054906101000a900473ffffffffffffffffffffffffffffffffffffffff16905081600560006101000a81548173ffffffffffffffffffffffffffffffffffffffff021916908373ffffffffffffffffffffffffffffffffffffffff1602179055508173ffffffffffffffffffffffffffffffffffffffff168173ffffffffffffffffffffffffffffffffffffffff167f8be0079c531659141344cd1fd0a4f28419497f9722a3daafe3b4186f6b6457e060405160405180910390a35050565b620002b98282620002bd60201b60201c565b5050565b620002cf8282620003af60201b60201c565b620003ab5760016006600084815260200190815260200160002060000160008373ffffffffffffffffffffffffffffffffffffffff1673ffffffffffffffffffffffffffffffffffffffff16815260200190815260200160002060006101000a81548160ff02191690831515021790555062000350620001d960201b60201c565b73ffffffffffffffffffffffffffffffffffffffff168173ffffffffffffffffffffffffffffffffffffffff16837f2f8788117e7eff1d82e926ec794901d17c78024a50270940304540a733656f0d60405160405180910390a45b5050565b60006006600084815260200190815260200160002060000160008373ffffffffffffffffffffffffffffffffffffffff1673ffffffffffffffffffffffffffffffffffffffff16815260200190815260200160002060009054906101000a900460ff16905092915050565b8280546200042890620005ec565b90600052602060002090601f0160209004810192826200044c576000855562000498565b82601f106200046757805160ff191683800117855562000498565b8280016001018555821562000498579182015b82811115620004975782518255916020019190600101906200047a565b5b509050620004a79190620004ab565b5090565b5b80821115620004c6576000816000905550600101620004ac565b5090565b600081519050620004db8162000651565b92915050565b600081519050620004f2816200066b565b92915050565b600080604083850312156200050c57600080fd5b60006200051c85828601620004ca565b92505060206200052f85828601620004e1565b9150509250929050565b6000620005486015836200059d565b91507f45524332304361707065643a20636170206973203000000000000000000000006000830152602082019050919050565b60006020820190508181036000830152620005968162000539565b9050919050565b600082825260208201905092915050565b6000620005bb82620005c2565b9050919050565b600073ffffffffffffffffffffffffffffffffffffffff82169050919050565b6000819050919050565b600060028204905060018216806200060557607f821691505b602082108114156200061c576200061b62000622565b5b50919050565b7f4e487b7100000000000000000000000000000000000000000000000000000000600052602260045260246000fd5b6200065c81620005ae565b81146200066857600080fd5b50565b6200067681620005e2565b81146200068257600080fd5b50565b608051613b31620006a16000396000610e430152613b316000f3fe608060405234801561001057600080fd5b506004361061023d5760003560e01c80635fe89eeb1161013b578063a457c2d7116100b8578063d53913931161007c578063d539139314610706578063d547741f14610724578063dd62ed3e14610740578063efe7a50414610770578063f2fde38b1461078e5761023d565b8063a457c2d71461063c578063a9059cbb1461066c578063c00007b01461069c578063c99de22f146106b8578063cb03fb1e146106d65761023d565b80638da5cb5b116100ff5780638da5cb5b1461059657806391d14854146105b457806395d89b41146105e45780639dc29fac14610602578063a217fddf1461061e5761023d565b80635fe89eeb146104f257806370a0823114610522578063715018a61461055257806371d6a0e21461055c5780638980f11f1461057a5761023d565b8063282c51f3116101c957806336568abe1161018d57806336568abe1461044e578063395093511461046a57806340c10f191461049a57806350177145146104b6578063557ed1ba146104d45761023d565b8063282c51f3146103bc5780632c8e8dfa146103da5780632f2ff15d146103f6578063313ce56714610412578063355274ea146104305761023d565b806318160ddd1161021057806318160ddd146102f05780631ee8866c1461030e57806323b872dd1461032c578063248a9ca31461035c578063267e8ab61461038c5761023d565b806301ffc9a71461024257806306fdde03146102725780630700037d14610290578063095ea7b3146102c0575b600080fd5b61025c60048036038101906102579190612bf3565b6107aa565b604051610269919061345e565b60405180910390f35b61027a610824565b60405161028791906134af565b60405180910390f35b6102aa60048036038101906102a59190612a75565b6108b6565b6040516102b791906136f1565b60405180910390f35b6102da60048036038101906102d59190612b29565b6108ce565b6040516102e7919061345e565b60405180910390f35b6102f86108ec565b60405161030591906136f1565b60405180910390f35b6103166108f6565b60405161032391906136f1565b60405180910390f35b61034660048036038101906103419190612ada565b6108fc565b604051610353919061345e565b60405180910390f35b61037660048036038101906103719190612b8e565b6109f4565b6040516103839190613479565b60405180910390f35b6103a660048036038101906103a19190612a75565b610a14565b6040516103b391906136f1565b60405180910390f35b6103c4610ab7565b6040516103d19190613479565b60405180910390f35b6103f460048036038101906103ef9190612ada565b610adb565b005b610410600480360381019061040b9190612bb7565b610e0d565b005b61041a610e36565b604051610427919061370c565b60405180910390f35b610438610e3f565b60405161044591906136f1565b60405180910390f35b61046860048036038101906104639190612bb7565b610e67565b005b610484600480360381019061047f9190612b29565b610eea565b604051610491919061345e565b60405180910390f35b6104b460048036038101906104af9190612b29565b610f96565b005b6104be611014565b6040516104cb9190613494565b60405180910390f35b6104dc61103a565b6040516104e991906136f1565b60405180910390f35b61050c60048036038101906105079190612c1c565b611042565b60405161051991906136f1565b60405180910390f35b61053c60048036038101906105379190612a75565b611126565b60405161054991906136f1565b60405180910390f35b61055a61116e565b005b6105646111f6565b60405161057191906136f1565b60405180910390f35b610594600480360381019061058f9190612b29565b6111fc565b005b61059e611311565b6040516105ab919061341a565b60405180910390f35b6105ce60048036038101906105c99190612bb7565b61133b565b6040516105db919061345e565b60405180910390f35b6105ec6113a6565b6040516105f991906134af565b60405180910390f35b61061c60048036038101906106179190612b29565b611438565b005b6106266114b6565b6040516106339190613479565b60405180910390f35b61065660048036038101906106519190612b29565b6114bd565b604051610663919061345e565b60405180910390f35b61068660048036038101906106819190612b29565b6115a8565b604051610693919061345e565b60405180910390f35b6106b660048036038101906106b19190612a75565b6115c6565b005b6106c061170f565b6040516106cd91906136f1565b60405180910390f35b6106f060048036038101906106eb9190612a75565b611715565b6040516106fd91906136f1565b60405180910390f35b61070e61172d565b60405161071b9190613479565b60405180910390f35b61073e60048036038101906107399190612bb7565b611751565b005b61075a60048036038101906107559190612a9e565b61177a565b60405161076791906136f1565b60405180910390f35b610778611801565b60405161078591906136f1565b60405180910390f35b6107a860048036038101906107a39190612a75565b611809565b005b60007f7965db0b000000000000000000000000000000000000000000000000000000007bffffffffffffffffffffffffffffffffffffffffffffffffffffffff1916827bffffffffffffffffffffffffffffffffffffffffffffffffffffffff1916148061081d575061081c82611901565b5b9050919050565b6060600380546108339061396f565b80601f016020809104026020016040519081016040528092919081815260200182805461085f9061396f565b80156108ac5780601f10610881576101008083540402835291602001916108ac565b820191906000526020600020905b81548152906001019060200180831161088f57829003601f168201915b5050505050905090565b600a6020528060005260406000206000915090505481565b60006108e26108db61196b565b8484611973565b6001905092915050565b6000600254905090565b60085481565b6000610909848484611b3e565b6000600160008673ffffffffffffffffffffffffffffffffffffffff1673ffffffffffffffffffffffffffffffffffffffff168152602001908152602001600020600061095461196b565b73ffffffffffffffffffffffffffffffffffffffff1673ffffffffffffffffffffffffffffffffffffffff168152602001908152602001600020549050828110156109d4576040517f08c379a00000000000000000000000000000000000000000000000000000000081526004016109cb906135d1565b60405180910390fd5b6109e8856109e061196b565b858403611973565b60019150509392505050565b600060066000838152602001908152602001600020600101549050919050565b6000610ab0610a6283600b60008673ffffffffffffffffffffffffffffffffffffffff1673ffffffffffffffffffffffffffffffffffffffff16815260200190815260200160002054611dbf565b600a60008573ffffffffffffffffffffffffffffffffffffffff1673ffffffffffffffffffffffffffffffffffffffff16815260200190815260200160002054611fbb90919063ffffffff16565b9050919050565b7f3c11d16cbaffd01df69ce1c404f6340ee057498f5f00246190ea54220576a84881565b600c60009054906101000a900473ffffffffffffffffffffffffffffffffffffffff1673ffffffffffffffffffffffffffffffffffffffff163373ffffffffffffffffffffffffffffffffffffffff1614610b3557600080fd5b610fa08111610e08576000610b55610b4b61103a565b6373223807611fd1565b90506000600b60008673ffffffffffffffffffffffffffffffffffffffff1673ffffffffffffffffffffffffffffffffffffffff1681526020019081526020016000205490506000811115610c4357610bff610bb18683611dbf565b600a60008873ffffffffffffffffffffffffffffffffffffffff1673ffffffffffffffffffffffffffffffffffffffff16815260200190815260200160002054611fbb90919063ffffffff16565b600a60008773ffffffffffffffffffffffffffffffffffffffff1673ffffffffffffffffffffffffffffffffffffffff168152602001908152602001600020819055505b63732238078114610c935781600b60008773ffffffffffffffffffffffffffffffffffffffff1673ffffffffffffffffffffffffffffffffffffffff168152602001908152602001600020819055505b600073ffffffffffffffffffffffffffffffffffffffff168473ffffffffffffffffffffffffffffffffffffffff1614610e05576000600b60008673ffffffffffffffffffffffffffffffffffffffff1673ffffffffffffffffffffffffffffffffffffffff1681526020019081526020016000205490506000811115610db357610d6f610d218683611dbf565b600a60008873ffffffffffffffffffffffffffffffffffffffff1673ffffffffffffffffffffffffffffffffffffffff16815260200190815260200160002054611fbb90919063ffffffff16565b600a60008773ffffffffffffffffffffffffffffffffffffffff1673ffffffffffffffffffffffffffffffffffffffff168152602001908152602001600020819055505b63732238078114610e035782600b60008773ffffffffffffffffffffffffffffffffffffffff1673ffffffffffffffffffffffffffffffffffffffff168152602001908152602001600020819055505b505b50505b505050565b610e16826109f4565b610e2781610e2261196b565b611fea565b610e318383612087565b505050565b60006012905090565b60007f0000000000000000000000000000000000000000000000000000000000000000905090565b610e6f61196b565b73ffffffffffffffffffffffffffffffffffffffff168173ffffffffffffffffffffffffffffffffffffffff1614610edc576040517f08c379a0000000000000000000000000000000000000000000000000000000008152600401610ed3906136b1565b60405180910390fd5b610ee68282612168565b5050565b6000610f8c610ef761196b565b848460016000610f0561196b565b73ffffffffffffffffffffffffffffffffffffffff1673ffffffffffffffffffffffffffffffffffffffff16815260200190815260200160002060008873ffffffffffffffffffffffffffffffffffffffff1673ffffffffffffffffffffffffffffffffffffffff16815260200190815260200160002054610f87919061374e565b611973565b6001905092915050565b610fc77f9f2df0fed2c77648de5860a4cc508cd0818c85b8b8a1ab4ceeef8d981c8956a6610fc261196b565b61133b565b611006576040517f08c379a0000000000000000000000000000000000000000000000000000000008152600401610ffd906135b1565b60405180910390fd5b611010828261224a565b5050565b600c60009054906101000a900473ffffffffffffffffffffffffffffffffffffffff1681565b600042905090565b600080600c60009054906101000a900473ffffffffffffffffffffffffffffffffffffffff1673ffffffffffffffffffffffffffffffffffffffff166348758697846040518263ffffffff1660e01b81526004016110a091906136f1565b60206040518083038186803b1580156110b857600080fd5b505afa1580156110cc573d6000803e3d6000fd5b505050506040513d601f19601f820116820180604052508101906110f09190612c45565b90506101f4811161110657600954915050611121565b610bb8811161111a57600854915050611121565b6007549150505b919050565b60008060008373ffffffffffffffffffffffffffffffffffffffff1673ffffffffffffffffffffffffffffffffffffffff168152602001908152602001600020549050919050565b61117661196b565b73ffffffffffffffffffffffffffffffffffffffff16611194611311565b73ffffffffffffffffffffffffffffffffffffffff16146111ea576040517f08c379a00000000000000000000000000000000000000000000000000000000081526004016111e1906135f1565b60405180910390fd5b6111f460006122b4565b565b60075481565b61120461196b565b73ffffffffffffffffffffffffffffffffffffffff16611222611311565b73ffffffffffffffffffffffffffffffffffffffff1614611278576040517f08c379a000000000000000000000000000000000000000000000000000000000815260040161126f906135f1565b60405180910390fd5b8173ffffffffffffffffffffffffffffffffffffffff1663a9059cbb61129c611311565b836040518363ffffffff1660e01b81526004016112ba929190613435565b602060405180830381600087803b1580156112d457600080fd5b505af11580156112e8573d6000803e3d6000fd5b505050506040513d601f19601f8201168201806040525081019061130c9190612b65565b505050565b6000600560009054906101000a900473ffffffffffffffffffffffffffffffffffffffff16905090565b60006006600084815260200190815260200160002060000160008373ffffffffffffffffffffffffffffffffffffffff1673ffffffffffffffffffffffffffffffffffffffff16815260200190815260200160002060009054906101000a900460ff16905092915050565b6060600480546113b59061396f565b80601f01602080910402602001604051908101604052809291908181526020018280546113e19061396f565b801561142e5780601f106114035761010080835404028352916020019161142e565b820191906000526020600020905b81548152906001019060200180831161141157829003601f168201915b5050505050905090565b6114697f3c11d16cbaffd01df69ce1c404f6340ee057498f5f00246190ea54220576a84861146461196b565b61133b565b6114a8576040517f08c379a000000000000000000000000000000000000000000000000000000000815260040161149f90613591565b60405180910390fd5b6114b2828261237a565b5050565b6000801b81565b600080600160006114cc61196b565b73ffffffffffffffffffffffffffffffffffffffff1673ffffffffffffffffffffffffffffffffffffffff16815260200190815260200160002060008573ffffffffffffffffffffffffffffffffffffffff1673ffffffffffffffffffffffffffffffffffffffff16815260200190815260200160002054905082811015611589576040517f08c379a000000000000000000000000000000000000000000000000000000000815260040161158090613691565b60405180910390fd5b61159d61159461196b565b85858403611973565b600191505092915050565b60006115bc6115b561196b565b8484611b3e565b6001905092915050565b600c60009054906101000a900473ffffffffffffffffffffffffffffffffffffffff1673ffffffffffffffffffffffffffffffffffffffff163373ffffffffffffffffffffffffffffffffffffffff161461162057600080fd5b6000600a60008373ffffffffffffffffffffffffffffffffffffffff1673ffffffffffffffffffffffffffffffffffffffff168152602001908152602001600020549050600081111561170b576000600a60008473ffffffffffffffffffffffffffffffffffffffff1673ffffffffffffffffffffffffffffffffffffffff168152602001908152602001600020819055506116bc828261224a565b8173ffffffffffffffffffffffffffffffffffffffff167fe2403640ba68fed3a2f88b7557551d1993f84b99bb10ff833f0cf8db0c5e04868260405161170291906136f1565b60405180910390a25b5050565b60095481565b600b6020528060005260406000206000915090505481565b7f9f2df0fed2c77648de5860a4cc508cd0818c85b8b8a1ab4ceeef8d981c8956a681565b61175a826109f4565b61176b8161176661196b565b611fea565b6117758383612168565b505050565b6000600160008473ffffffffffffffffffffffffffffffffffffffff1673ffffffffffffffffffffffffffffffffffffffff16815260200190815260200160002060008373ffffffffffffffffffffffffffffffffffffffff1673ffffffffffffffffffffffffffffffffffffffff16815260200190815260200160002054905092915050565b637322380781565b61181161196b565b73ffffffffffffffffffffffffffffffffffffffff1661182f611311565b73ffffffffffffffffffffffffffffffffffffffff1614611885576040517f08c379a000000000000000000000000000000000000000000000000000000000815260040161187c906135f1565b60405180910390fd5b600073ffffffffffffffffffffffffffffffffffffffff168173ffffffffffffffffffffffffffffffffffffffff1614156118f5576040517f08c379a00000000000000000000000000000000000000000000000000000000081526004016118ec90613531565b60405180910390fd5b6118fe816122b4565b50565b60007f01ffc9a7000000000000000000000000000000000000000000000000000000007bffffffffffffffffffffffffffffffffffffffffffffffffffffffff1916827bffffffffffffffffffffffffffffffffffffffffffffffffffffffff1916149050919050565b600033905090565b600073ffffffffffffffffffffffffffffffffffffffff168373ffffffffffffffffffffffffffffffffffffffff1614156119e3576040517f08c379a00000000000000000000000000000000000000000000000000000000081526004016119da90613671565b60405180910390fd5b600073ffffffffffffffffffffffffffffffffffffffff168273ffffffffffffffffffffffffffffffffffffffff161415611a53576040517f08c379a0000000000000000000000000000000000000000000000000000000008152600401611a4a90613551565b60405180910390fd5b80600160008573ffffffffffffffffffffffffffffffffffffffff1673ffffffffffffffffffffffffffffffffffffffff16815260200190815260200160002060008473ffffffffffffffffffffffffffffffffffffffff1673ffffffffffffffffffffffffffffffffffffffff168152602001908152602001600020819055508173ffffffffffffffffffffffffffffffffffffffff168373ffffffffffffffffffffffffffffffffffffffff167f8c5be1e5ebec7d5bd14f71427d1e84f3dd0314c0f7b2291e5b200ac8c7c3b92583604051611b3191906136f1565b60405180910390a3505050565b600073ffffffffffffffffffffffffffffffffffffffff168373ffffffffffffffffffffffffffffffffffffffff161415611bae576040517f08c379a0000000000000000000000000000000000000000000000000000000008152600401611ba590613631565b60405180910390fd5b600073ffffffffffffffffffffffffffffffffffffffff168273ffffffffffffffffffffffffffffffffffffffff161415611c1e576040517f08c379a0000000000000000000000000000000000000000000000000000000008152600401611c15906134f1565b60405180910390fd5b611c29838383612551565b60008060008573ffffffffffffffffffffffffffffffffffffffff1673ffffffffffffffffffffffffffffffffffffffff16815260200190815260200160002054905081811015611caf576040517f08c379a0000000000000000000000000000000000000000000000000000000008152600401611ca690613571565b60405180910390fd5b8181036000808673ffffffffffffffffffffffffffffffffffffffff1673ffffffffffffffffffffffffffffffffffffffff16815260200190815260200160002081905550816000808573ffffffffffffffffffffffffffffffffffffffff1673ffffffffffffffffffffffffffffffffffffffff1681526020019081526020016000206000828254611d42919061374e565b925050819055508273ffffffffffffffffffffffffffffffffffffffff168473ffffffffffffffffffffffffffffffffffffffff167fddf252ad1be2c89b69c2b068fc378daa952ba7f163c4a11628f55a4df523b3ef84604051611da691906136f1565b60405180910390a3611db9848484612556565b50505050565b600080600090506000611ddd611dd361103a565b6373223807611fd1565b905060005b600c60009054906101000a900473ffffffffffffffffffffffffffffffffffffffff1673ffffffffffffffffffffffffffffffffffffffff166338712d8d876040518263ffffffff1660e01b8152600401611e3d919061341a565b60206040518083038186803b158015611e5557600080fd5b505afa158015611e69573d6000803e3d6000fd5b505050506040513d601f19601f82011682018060405250810190611e8d9190612c45565b811015611faf576000600c60009054906101000a900473ffffffffffffffffffffffffffffffffffffffff1673ffffffffffffffffffffffffffffffffffffffff16632f745c5988846040518363ffffffff1660e01b8152600401611ef3929190613435565b60206040518083038186803b158015611f0b57600080fd5b505afa158015611f1f573d6000803e3d6000fd5b505050506040513d601f19601f82011682018060405250810190611f439190612c45565b9050611f99611f8a62015180611f7c611f658a8861255b90919063ffffffff16565b611f6e86611042565b61257190919063ffffffff16565b61258790919063ffffffff16565b85611fbb90919063ffffffff16565b9350508080611fa7906139a1565b915050611de2565b50819250505092915050565b60008183611fc9919061374e565b905092915050565b6000818310611fe05781611fe2565b825b905092915050565b611ff4828261133b565b612083576120198173ffffffffffffffffffffffffffffffffffffffff16601461259d565b6120278360001c602061259d565b6040516020016120389291906133e0565b6040516020818303038152906040526040517f08c379a000000000000000000000000000000000000000000000000000000000815260040161207a91906134af565b60405180910390fd5b5050565b612091828261133b565b6121645760016006600084815260200190815260200160002060000160008373ffffffffffffffffffffffffffffffffffffffff1673ffffffffffffffffffffffffffffffffffffffff16815260200190815260200160002060006101000a81548160ff02191690831515021790555061210961196b565b73ffffffffffffffffffffffffffffffffffffffff168173ffffffffffffffffffffffffffffffffffffffff16837f2f8788117e7eff1d82e926ec794901d17c78024a50270940304540a733656f0d60405160405180910390a45b5050565b612172828261133b565b156122465760006006600084815260200190815260200160002060000160008373ffffffffffffffffffffffffffffffffffffffff1673ffffffffffffffffffffffffffffffffffffffff16815260200190815260200160002060006101000a81548160ff0219169083151502179055506121eb61196b565b73ffffffffffffffffffffffffffffffffffffffff168173ffffffffffffffffffffffffffffffffffffffff16837ff6391f5c32d9c69d2a47ea670b442974b53935d1edc7fd64eb21e047a839171b60405160405180910390a45b5050565b612252610e3f565b8161225b6108ec565b612265919061374e565b11156122a6576040517f08c379a000000000000000000000000000000000000000000000000000000000815260040161229d90613651565b60405180910390fd5b6122b08282612897565b5050565b6000600560009054906101000a900473ffffffffffffffffffffffffffffffffffffffff16905081600560006101000a81548173ffffffffffffffffffffffffffffffffffffffff021916908373ffffffffffffffffffffffffffffffffffffffff1602179055508173ffffffffffffffffffffffffffffffffffffffff168173ffffffffffffffffffffffffffffffffffffffff167f8be0079c531659141344cd1fd0a4f28419497f9722a3daafe3b4186f6b6457e060405160405180910390a35050565b600073ffffffffffffffffffffffffffffffffffffffff168273ffffffffffffffffffffffffffffffffffffffff1614156123ea576040517f08c379a00000000000000000000000000000000000000000000000000000000081526004016123e190613611565b60405180910390fd5b6123f682600083612551565b60008060008473ffffffffffffffffffffffffffffffffffffffff1673ffffffffffffffffffffffffffffffffffffffff1681526020019081526020016000205490508181101561247c576040517f08c379a000000000000000000000000000000000000000000000000000000000815260040161247390613511565b60405180910390fd5b8181036000808573ffffffffffffffffffffffffffffffffffffffff1673ffffffffffffffffffffffffffffffffffffffff1681526020019081526020016000208190555081600260008282546124d3919061382f565b92505081905550600073ffffffffffffffffffffffffffffffffffffffff168373ffffffffffffffffffffffffffffffffffffffff167fddf252ad1be2c89b69c2b068fc378daa952ba7f163c4a11628f55a4df523b3ef8460405161253891906136f1565b60405180910390a361254c83600084612556565b505050565b505050565b505050565b60008183612569919061382f565b905092915050565b6000818361257f91906137d5565b905092915050565b6000818361259591906137a4565b905092915050565b6060600060028360026125b091906137d5565b6125ba919061374e565b67ffffffffffffffff8111156125f9577f4e487b7100000000000000000000000000000000000000000000000000000000600052604160045260246000fd5b6040519080825280601f01601f19166020018201604052801561262b5781602001600182028036833780820191505090505b5090507f300000000000000000000000000000000000000000000000000000000000000081600081518110612689577f4e487b7100000000000000000000000000000000000000000000000000000000600052603260045260246000fd5b60200101907effffffffffffffffffffffffffffffffffffffffffffffffffffffffffffff1916908160001a9053507f780000000000000000000000000000000000000000000000000000000000000081600181518110612713577f4e487b7100000000000000000000000000000000000000000000000000000000600052603260045260246000fd5b60200101907effffffffffffffffffffffffffffffffffffffffffffffffffffffffffffff1916908160001a9053506000600184600261275391906137d5565b61275d919061374e565b90505b6001811115612849577f3031323334353637383961626364656600000000000000000000000000000000600f8616601081106127c5577f4e487b7100000000000000000000000000000000000000000000000000000000600052603260045260246000fd5b1a60f81b828281518110612802577f4e487b7100000000000000000000000000000000000000000000000000000000600052603260045260246000fd5b60200101907effffffffffffffffffffffffffffffffffffffffffffffffffffffffffffff1916908160001a905350600485901c94508061284290613945565b9050612760565b506000841461288d576040517f08c379a0000000000000000000000000000000000000000000000000000000008152600401612884906134d1565b60405180910390fd5b8091505092915050565b600073ffffffffffffffffffffffffffffffffffffffff168273ffffffffffffffffffffffffffffffffffffffff161415612907576040517f08c379a00000000000000000000000000000000000000000000000000000000081526004016128fe906136d1565b60405180910390fd5b61291360008383612551565b8060026000828254612925919061374e565b92505081905550806000808473ffffffffffffffffffffffffffffffffffffffff1673ffffffffffffffffffffffffffffffffffffffff168152602001908152602001600020600082825461297a919061374e565b925050819055508173ffffffffffffffffffffffffffffffffffffffff16600073ffffffffffffffffffffffffffffffffffffffff167fddf252ad1be2c89b69c2b068fc378daa952ba7f163c4a11628f55a4df523b3ef836040516129df91906136f1565b60405180910390a36129f360008383612556565b5050565b600081359050612a0681613a88565b92915050565b600081519050612a1b81613a9f565b92915050565b600081359050612a3081613ab6565b92915050565b600081359050612a4581613acd565b92915050565b600081359050612a5a81613ae4565b92915050565b600081519050612a6f81613ae4565b92915050565b600060208284031215612a8757600080fd5b6000612a95848285016129f7565b91505092915050565b60008060408385031215612ab157600080fd5b6000612abf858286016129f7565b9250506020612ad0858286016129f7565b9150509250929050565b600080600060608486031215612aef57600080fd5b6000612afd868287016129f7565b9350506020612b0e868287016129f7565b9250506040612b1f86828701612a4b565b9150509250925092565b60008060408385031215612b3c57600080fd5b6000612b4a858286016129f7565b9250506020612b5b85828601612a4b565b9150509250929050565b600060208284031215612b7757600080fd5b6000612b8584828501612a0c565b91505092915050565b600060208284031215612ba057600080fd5b6000612bae84828501612a21565b91505092915050565b60008060408385031215612bca57600080fd5b6000612bd885828601612a21565b9250506020612be9858286016129f7565b9150509250929050565b600060208284031215612c0557600080fd5b6000612c1384828501612a36565b91505092915050565b600060208284031215612c2e57600080fd5b6000612c3c84828501612a4b565b91505092915050565b600060208284031215612c5757600080fd5b6000612c6584828501612a60565b91505092915050565b612c7781613863565b82525050565b612c8681613875565b82525050565b612c9581613881565b82525050565b612ca4816138ee565b82525050565b6000612cb582613727565b612cbf8185613732565b9350612ccf818560208601613912565b612cd881613a77565b840191505092915050565b6000612cee82613727565b612cf88185613743565b9350612d08818560208601613912565b80840191505092915050565b6000612d21602083613732565b91507f537472696e67733a20686578206c656e67746820696e73756666696369656e746000830152602082019050919050565b6000612d61602383613732565b91507f45524332303a207472616e7366657220746f20746865207a65726f206164647260008301527f65737300000000000000000000000000000000000000000000000000000000006020830152604082019050919050565b6000612dc7602283613732565b91507f45524332303a206275726e20616d6f756e7420657863656564732062616c616e60008301527f63650000000000000000000000000000000000000000000000000000000000006020830152604082019050919050565b6000612e2d602683613732565b91507f4f776e61626c653a206e6577206f776e657220697320746865207a65726f206160008301527f64647265737300000000000000000000000000000000000000000000000000006020830152604082019050919050565b6000612e93602283613732565b91507f45524332303a20617070726f766520746f20746865207a65726f20616464726560008301527f73730000000000000000000000000000000000000000000000000000000000006020830152604082019050919050565b6000612ef9602683613732565b91507f45524332303a207472616e7366657220616d6f756e742065786365656473206260008301527f616c616e636500000000000000000000000000000000000000000000000000006020830152604082019050919050565b6000612f5f602783613732565b91507f416363657373436f6e74726f6c3a2063616c6c6572206973206e6f742074686560008301527f206275726e6572000000000000000000000000000000000000000000000000006020830152604082019050919050565b6000612fc5602783613732565b91507f416363657373436f6e74726f6c3a2063616c6c6572206973206e6f742074686560008301527f206d696e746572000000000000000000000000000000000000000000000000006020830152604082019050919050565b600061302b602883613732565b91507f45524332303a207472616e7366657220616d6f756e742065786365656473206160008301527f6c6c6f77616e63650000000000000000000000000000000000000000000000006020830152604082019050919050565b6000613091602083613732565b91507f4f776e61626c653a2063616c6c6572206973206e6f7420746865206f776e65726000830152602082019050919050565b60006130d1602183613732565b91507f45524332303a206275726e2066726f6d20746865207a65726f2061646472657360008301527f73000000000000000000000000000000000000000000000000000000000000006020830152604082019050919050565b6000613137602583613732565b91507f45524332303a207472616e736665722066726f6d20746865207a65726f20616460008301527f64726573730000000000000000000000000000000000000000000000000000006020830152604082019050919050565b600061319d601983613732565b91507f45524332304361707065643a20636170206578636565646564000000000000006000830152602082019050919050565b60006131dd602483613732565b91507f45524332303a20617070726f76652066726f6d20746865207a65726f2061646460008301527f72657373000000000000000000000000000000000000000000000000000000006020830152604082019050919050565b6000613243601783613743565b91507f416363657373436f6e74726f6c3a206163636f756e74200000000000000000006000830152601782019050919050565b6000613283602583613732565b91507f45524332303a2064656372656173656420616c6c6f77616e63652062656c6f7760008301527f207a65726f0000000000000000000000000000000000000000000000000000006020830152604082019050919050565b60006132e9601183613743565b91507f206973206d697373696e6720726f6c65200000000000000000000000000000006000830152601182019050919050565b6000613329602f83613732565b91507f416363657373436f6e74726f6c3a2063616e206f6e6c792072656e6f756e636560008301527f20726f6c657320666f722073656c6600000000000000000000000000000000006020830152604082019050919050565b600061338f601f83613732565b91507f45524332303a206d696e7420746f20746865207a65726f2061646472657373006000830152602082019050919050565b6133cb816138d7565b82525050565b6133da816138e1565b82525050565b60006133eb82613236565b91506133f78285612ce3565b9150613402826132dc565b915061340e8284612ce3565b91508190509392505050565b600060208201905061342f6000830184612c6e565b92915050565b600060408201905061344a6000830185612c6e565b61345760208301846133c2565b9392505050565b60006020820190506134736000830184612c7d565b92915050565b600060208201905061348e6000830184612c8c565b92915050565b60006020820190506134a96000830184612c9b565b92915050565b600060208201905081810360008301526134c98184612caa565b905092915050565b600060208201905081810360008301526134ea81612d14565b9050919050565b6000602082019050818103600083015261350a81612d54565b9050919050565b6000602082019050818103600083015261352a81612dba565b9050919050565b6000602082019050818103600083015261354a81612e20565b9050919050565b6000602082019050818103600083015261356a81612e86565b9050919050565b6000602082019050818103600083015261358a81612eec565b9050919050565b600060208201905081810360008301526135aa81612f52565b9050919050565b600060208201905081810360008301526135ca81612fb8565b9050919050565b600060208201905081810360008301526135ea8161301e565b9050919050565b6000602082019050818103600083015261360a81613084565b9050919050565b6000602082019050818103600083015261362a816130c4565b9050919050565b6000602082019050818103600083015261364a8161312a565b9050919050565b6000602082019050818103600083015261366a81613190565b9050919050565b6000602082019050818103600083015261368a816131d0565b9050919050565b600060208201905081810360008301526136aa81613276565b9050919050565b600060208201905081810360008301526136ca8161331c565b9050919050565b600060208201905081810360008301526136ea81613382565b9050919050565b600060208201905061370660008301846133c2565b92915050565b600060208201905061372160008301846133d1565b92915050565b600081519050919050565b600082825260208201905092915050565b600081905092915050565b6000613759826138d7565b9150613764836138d7565b9250827fffffffffffffffffffffffffffffffffffffffffffffffffffffffffffffffff03821115613799576137986139ea565b5b828201905092915050565b60006137af826138d7565b91506137ba836138d7565b9250826137ca576137c9613a19565b5b828204905092915050565b60006137e0826138d7565b91506137eb836138d7565b9250817fffffffffffffffffffffffffffffffffffffffffffffffffffffffffffffffff0483118215151615613824576138236139ea565b5b828202905092915050565b600061383a826138d7565b9150613845836138d7565b925082821015613858576138576139ea565b5b828203905092915050565b600061386e826138b7565b9050919050565b60008115159050919050565b6000819050919050565b60007fffffffff0000000000000000000000000000000000000000000000000000000082169050919050565b600073ffffffffffffffffffffffffffffffffffffffff82169050919050565b6000819050919050565b600060ff82169050919050565b60006138f982613900565b9050919050565b600061390b826138b7565b9050919050565b60005b83811015613930578082015181840152602081019050613915565b8381111561393f576000848401525b50505050565b6000613950826138d7565b91506000821415613964576139636139ea565b5b600182039050919050565b6000600282049050600182168061398757607f821691505b6020821081141561399b5761399a613a48565b5b50919050565b60006139ac826138d7565b91507fffffffffffffffffffffffffffffffffffffffffffffffffffffffffffffffff8214156139df576139de6139ea565b5b600182019050919050565b7f4e487b7100000000000000000000000000000000000000000000000000000000600052601160045260246000fd5b7f4e487b7100000000000000000000000000000000000000000000000000000000600052601260045260246000fd5b7f4e487b7100000000000000000000000000000000000000000000000000000000600052602260045260246000fd5b6000601f19601f8301169050919050565b613a9181613863565b8114613a9c57600080fd5b50565b613aa881613875565b8114613ab357600080fd5b50565b613abf81613881565b8114613aca57600080fd5b50565b613ad68161388b565b8114613ae157600080fd5b50565b613aed816138d7565b8114613af857600080fd5b5056fea26469706673582212207e1f76838f926b967a7189e29ded050f0f1013ff57ea756670217d8f4819544a64736f6c63430008000033",
  "immutableReferences": {
    "1115": [
      {
        "length": 32,
        "start": 3651
      }
    ]
  },
  "source": "// SPDX-License-Identifier: MIT\n\npragma solidity ^0.8.0;\n\nimport \"@openzeppelin/contracts/token/ERC20/extensions/ERC20Capped.sol\";\nimport \"@openzeppelin/contracts/token/ERC20/IERC20.sol\";\nimport \"@openzeppelin/contracts/access/AccessControl.sol\";\nimport \"@openzeppelin/contracts/access/Ownable.sol\";\nimport \"@openzeppelin/contracts/utils/math/SafeMath.sol\";\nimport \"./interfaces/ISkullsRising.sol\";\n\ncontract YieldToken is ERC20Capped, Ownable, AccessControl {\n\tusing SafeMath for uint256;\n\n\t// read ether = tokens\n\tuint256 public LOW_RATE = 10 ether;\n\tuint256 public MEDIUM_RATE = 15 ether;\n\tuint256 public HIGH_RATE = 20 ether;\n\n\t// Tue Mar 18 2031 17:46:47 GMT+0000\n\tuint256 constant public END = 1931622407;\n\n\tmapping(address => uint256) public rewards;\n\tmapping(address => uint256) public lastUpdate;\n\n\tISkullsRising public skullsContract;\n\n\tevent RewardPaid(address indexed user, uint256 reward);\n\n\tbytes32 public constant MINTER_ROLE = keccak256(\"MINTER_ROLE\");\n\tbytes32 public constant BURNER_ROLE = keccak256(\"BURNER_ROLE\");\n\n\tmodifier onlyMinter() {\n\t\trequire(hasRole(MINTER_ROLE, _msgSender()), \"AccessControl: caller is not the minter\");\n\t\t_;\n\t}\n\n\tmodifier onlyBurner() {\n\t\trequire(hasRole(BURNER_ROLE, _msgSender()), \"AccessControl: caller is not the burner\");\n\t\t_;\n\t}\n\t\n\tconstructor (\n\t\taddress _skulls,\n\t\tuint256 _supplyCap\n\t) ERC20(\"Bones\", \"BONES\") ERC20Capped(_supplyCap)\n\t{\n\t\t_setupRole(DEFAULT_ADMIN_ROLE, _msgSender());\n\t\tskullsContract = ISkullsRising(_skulls);\n\t}\n\n\tfunction min(uint256 a, uint256 b) internal pure returns (uint256) {\n\t\treturn a < b ? a : b;\n\t}\n\n\tfunction getTime() public virtual view returns (uint256) {\n\t\treturn block.timestamp;\n\t}\n\n\tfunction getDailyRewardRate(uint256 _tokenId) public view returns (uint256) {\n\t\tuint256 rarity = skullsContract.getRarity(_tokenId);\n\t\t\n\t\tif (rarity <= 500) {\n\t\t\treturn HIGH_RATE;\n\t\t} else if (rarity <= 3000) {\n\t\t\treturn MEDIUM_RATE;\n\t\t} else {\n\t\t\treturn LOW_RATE;\n\t\t}\n\t}\n\n\t// called on transfers\n\tfunction updateReward(address _from, address _to, uint256 _tokenId) external {\n\t\trequire(msg.sender == address(skullsContract));\n\t\tif (_tokenId <= 4000) {\n\t\t\tuint256 time = min(getTime(), END);\n\t\t\tuint256 timerFrom = lastUpdate[_from];\n\t\t\tif (timerFrom > 0)\n\t\t\t\trewards[_from] = rewards[_from].add(getPendingRewards(_from, timerFrom));\n\t\t\tif (timerFrom != END)\n\t\t\t\tlastUpdate[_from] = time;\n\t\t\tif (_to != address(0)) {\n\t\t\t\tuint256 timerTo = lastUpdate[_to];\n\t\t\t\tif (timerTo > 0)\n\t\t\t\t\trewards[_to] = rewards[_to].add(getPendingRewards(_to, timerTo));\n\t\t\t\tif (timerTo != END)\n\t\t\t\t\tlastUpdate[_to] = time;\n\t\t\t}\n\t\t}\n\t}\n\n\tfunction getReward(address _to) external {\n\t\trequire(msg.sender == address(skullsContract));\n\t\tuint256 reward = rewards[_to];\n\t\tif (reward > 0) {\n\t\t\trewards[_to] = 0;\n\t\t\t_mint(_to, reward);\n\t\t\temit RewardPaid(_to, reward);\n\t\t}\n\t}\n\n\tfunction getPendingRewards(address _user, uint256 _lastUpdateTime) internal view returns (uint256) {\n\t\tuint256 pending = 0;\n\t\tuint256 time = min(getTime(), END);\n\t\t// Iterate through all tokens owner by user.\n\t\tfor (uint256 i = 0; i < skullsContract.balanceOG(_user); i++) {\n\t\t\tuint256 tokenId = skullsContract.tokenOfOwnerByIndex(_user, i);\n\t\t\tpending = pending.add(getDailyRewardRate(tokenId).mul(time.sub(_lastUpdateTime)).div(86400));\n\t\t}\n\n\t\treturn pending;\n\t}\n\n\tfunction getTotalClaimable(address _user) external view returns(uint256) {\n\t\treturn rewards[_user].add(getPendingRewards(_user, lastUpdate[_user]));\n\t}\n\n\t/*\n\t* OWNER FUNCTIONS\n\t*/\n\n\t/**\n\t * @dev Remember that only owner can call so be careful when use on contracts generated from other contracts.\n\t * @param _tokenAddress The token contract address\n\t * @param _tokenAmount Number of tokens to be sent\n\t */\n\tfunction recoverERC20(address _tokenAddress, uint256 _tokenAmount) public onlyOwner {\n\t\tIERC20(_tokenAddress).transfer(owner(), _tokenAmount);\n\t}\n\n\tfunction mint(address _account, uint256 _amount) public onlyMinter {\n\t\t_mint(_account, _amount);\n\t}\n\n\tfunction burn(address _from, uint256 _amount) external onlyBurner {\n\t\t_burn(_from, _amount);\n\t}\n}\n\n\n",
  "sourcePath": "/Users/reneVolution/Documents/Development/PiratesNFT/pirates-contracts/src/contracts/YieldToken.sol",
  "compiler": {
    "name": "solc",
    "version": "0.8.0+commit.c7dfd78e.Emscripten.clang"
  },
  "schemaVersion": "3.4.3",
  "updatedAt": "2021-10-30T15:19:47.900Z",
  "devdoc": {
    "kind": "dev",
    "methods": {
      "allowance(address,address)": {
        "details": "See {IERC20-allowance}."
      },
      "approve(address,uint256)": {
        "details": "See {IERC20-approve}. Requirements: - `spender` cannot be the zero address."
      },
      "balanceOf(address)": {
        "details": "See {IERC20-balanceOf}."
      },
      "cap()": {
        "details": "Returns the cap on the token's total supply."
      },
      "decimals()": {
        "details": "Returns the number of decimals used to get its user representation. For example, if `decimals` equals `2`, a balance of `505` tokens should be displayed to a user as `5.05` (`505 / 10 ** 2`). Tokens usually opt for a value of 18, imitating the relationship between Ether and Wei. This is the value {ERC20} uses, unless this function is overridden; NOTE: This information is only used for _display_ purposes: it in no way affects any of the arithmetic of the contract, including {IERC20-balanceOf} and {IERC20-transfer}."
      },
      "decreaseAllowance(address,uint256)": {
        "details": "Atomically decreases the allowance granted to `spender` by the caller. This is an alternative to {approve} that can be used as a mitigation for problems described in {IERC20-approve}. Emits an {Approval} event indicating the updated allowance. Requirements: - `spender` cannot be the zero address. - `spender` must have allowance for the caller of at least `subtractedValue`."
      },
      "getRoleAdmin(bytes32)": {
        "details": "Returns the admin role that controls `role`. See {grantRole} and {revokeRole}. To change a role's admin, use {_setRoleAdmin}."
      },
      "grantRole(bytes32,address)": {
        "details": "Grants `role` to `account`. If `account` had not been already granted `role`, emits a {RoleGranted} event. Requirements: - the caller must have ``role``'s admin role."
      },
      "hasRole(bytes32,address)": {
        "details": "Returns `true` if `account` has been granted `role`."
      },
      "increaseAllowance(address,uint256)": {
        "details": "Atomically increases the allowance granted to `spender` by the caller. This is an alternative to {approve} that can be used as a mitigation for problems described in {IERC20-approve}. Emits an {Approval} event indicating the updated allowance. Requirements: - `spender` cannot be the zero address."
      },
      "name()": {
        "details": "Returns the name of the token."
      },
      "owner()": {
        "details": "Returns the address of the current owner."
      },
      "recoverERC20(address,uint256)": {
        "details": "Remember that only owner can call so be careful when use on contracts generated from other contracts.",
        "params": {
          "_tokenAddress": "The token contract address",
          "_tokenAmount": "Number of tokens to be sent"
        }
      },
      "renounceOwnership()": {
        "details": "Leaves the contract without owner. It will not be possible to call `onlyOwner` functions anymore. Can only be called by the current owner. NOTE: Renouncing ownership will leave the contract without an owner, thereby removing any functionality that is only available to the owner."
      },
      "renounceRole(bytes32,address)": {
        "details": "Revokes `role` from the calling account. Roles are often managed via {grantRole} and {revokeRole}: this function's purpose is to provide a mechanism for accounts to lose their privileges if they are compromised (such as when a trusted device is misplaced). If the calling account had been granted `role`, emits a {RoleRevoked} event. Requirements: - the caller must be `account`."
      },
      "revokeRole(bytes32,address)": {
        "details": "Revokes `role` from `account`. If `account` had been granted `role`, emits a {RoleRevoked} event. Requirements: - the caller must have ``role``'s admin role."
      },
      "supportsInterface(bytes4)": {
        "details": "See {IERC165-supportsInterface}."
      },
      "symbol()": {
        "details": "Returns the symbol of the token, usually a shorter version of the name."
      },
      "totalSupply()": {
        "details": "See {IERC20-totalSupply}."
      },
      "transfer(address,uint256)": {
        "details": "See {IERC20-transfer}. Requirements: - `recipient` cannot be the zero address. - the caller must have a balance of at least `amount`."
      },
      "transferFrom(address,address,uint256)": {
        "details": "See {IERC20-transferFrom}. Emits an {Approval} event indicating the updated allowance. This is not required by the EIP. See the note at the beginning of {ERC20}. Requirements: - `sender` and `recipient` cannot be the zero address. - `sender` must have a balance of at least `amount`. - the caller must have allowance for ``sender``'s tokens of at least `amount`."
      },
      "transferOwnership(address)": {
        "details": "Transfers ownership of the contract to a new account (`newOwner`). Can only be called by the current owner."
      }
    },
    "version": 1
  },
  "userdoc": {
    "kind": "user",
    "methods": {},
    "version": 1
  }
}